{
  "contractName": "ERC1400",
  "abi": [
    {
      "inputs": [
        {
          "internalType": "string",
          "name": "tokenName",
          "type": "string"
        },
        {
          "internalType": "string",
          "name": "tokenSymbol",
          "type": "string"
        },
        {
          "internalType": "uint256",
          "name": "tokenGranularity",
          "type": "uint256"
        },
        {
          "internalType": "address[]",
          "name": "initialControllers",
          "type": "address[]"
        },
        {
          "internalType": "bytes32[]",
          "name": "defaultPartitions",
          "type": "bytes32[]"
        }
      ],
      "stateMutability": "nonpayable",
      "type": "constructor"
    },
    {
      "anonymous": false,
      "inputs": [
        {
          "indexed": true,
          "internalType": "address",
          "name": "owner",
          "type": "address"
        },
        {
          "indexed": true,
          "internalType": "address",
          "name": "spender",
          "type": "address"
        },
        {
          "indexed": false,
          "internalType": "uint256",
          "name": "value",
          "type": "uint256"
        }
      ],
      "name": "Approval",
      "type": "event"
    },
    {
      "anonymous": false,
      "inputs": [
        {
          "indexed": true,
          "internalType": "bytes32",
          "name": "partition",
          "type": "bytes32"
        },
        {
          "indexed": true,
          "internalType": "address",
          "name": "owner",
          "type": "address"
        },
        {
          "indexed": true,
          "internalType": "address",
          "name": "spender",
          "type": "address"
        },
        {
          "indexed": false,
          "internalType": "uint256",
          "name": "value",
          "type": "uint256"
        }
      ],
      "name": "ApprovalByPartition",
      "type": "event"
    },
    {
      "anonymous": false,
      "inputs": [
        {
          "indexed": true,
          "internalType": "address",
          "name": "operator",
          "type": "address"
        },
        {
          "indexed": true,
          "internalType": "address",
          "name": "tokenHolder",
          "type": "address"
        }
      ],
      "name": "AuthorizedOperator",
      "type": "event"
    },
    {
      "anonymous": false,
      "inputs": [
        {
          "indexed": true,
          "internalType": "bytes32",
          "name": "partition",
          "type": "bytes32"
        },
        {
          "indexed": true,
          "internalType": "address",
          "name": "operator",
          "type": "address"
        },
        {
          "indexed": true,
          "internalType": "address",
          "name": "tokenHolder",
          "type": "address"
        }
      ],
      "name": "AuthorizedOperatorByPartition",
      "type": "event"
    },
    {
      "anonymous": false,
      "inputs": [
        {
          "indexed": true,
          "internalType": "bytes32",
          "name": "fromPartition",
          "type": "bytes32"
        },
        {
          "indexed": true,
          "internalType": "bytes32",
          "name": "toPartition",
          "type": "bytes32"
        },
        {
          "indexed": false,
          "internalType": "uint256",
          "name": "value",
          "type": "uint256"
        }
      ],
      "name": "ChangedPartition",
      "type": "event"
    },
    {
      "anonymous": false,
      "inputs": [
        {
          "indexed": true,
          "internalType": "bytes32",
          "name": "name",
          "type": "bytes32"
        },
        {
          "indexed": false,
          "internalType": "string",
          "name": "uri",
          "type": "string"
        },
        {
          "indexed": false,
          "internalType": "bytes32",
          "name": "documentHash",
          "type": "bytes32"
        }
      ],
      "name": "DocumentRemoved",
      "type": "event"
    },
    {
      "anonymous": false,
      "inputs": [
        {
          "indexed": true,
          "internalType": "bytes32",
          "name": "name",
          "type": "bytes32"
        },
        {
          "indexed": false,
          "internalType": "string",
          "name": "uri",
          "type": "string"
        },
        {
          "indexed": false,
          "internalType": "bytes32",
          "name": "documentHash",
          "type": "bytes32"
        }
      ],
      "name": "DocumentUpdated",
      "type": "event"
    },
    {
      "anonymous": false,
      "inputs": [
        {
          "indexed": true,
          "internalType": "address",
          "name": "operator",
          "type": "address"
        },
        {
          "indexed": true,
          "internalType": "address",
          "name": "to",
          "type": "address"
        },
        {
          "indexed": false,
          "internalType": "uint256",
          "name": "value",
          "type": "uint256"
        },
        {
          "indexed": false,
          "internalType": "bytes",
          "name": "data",
          "type": "bytes"
        }
      ],
      "name": "Issued",
      "type": "event"
    },
    {
      "anonymous": false,
      "inputs": [
        {
          "indexed": true,
          "internalType": "bytes32",
          "name": "partition",
          "type": "bytes32"
        },
        {
          "indexed": true,
          "internalType": "address",
          "name": "operator",
          "type": "address"
        },
        {
          "indexed": true,
          "internalType": "address",
          "name": "to",
          "type": "address"
        },
        {
          "indexed": false,
          "internalType": "uint256",
          "name": "value",
          "type": "uint256"
        },
        {
          "indexed": false,
          "internalType": "bytes",
          "name": "data",
          "type": "bytes"
        },
        {
          "indexed": false,
          "internalType": "bytes",
          "name": "operatorData",
          "type": "bytes"
        }
      ],
      "name": "IssuedByPartition",
      "type": "event"
    },
    {
      "anonymous": false,
      "inputs": [
        {
          "indexed": true,
          "internalType": "address",
          "name": "account",
          "type": "address"
        }
      ],
      "name": "MinterAdded",
      "type": "event"
    },
    {
      "anonymous": false,
      "inputs": [
        {
          "indexed": true,
          "internalType": "address",
          "name": "account",
          "type": "address"
        }
      ],
      "name": "MinterRemoved",
      "type": "event"
    },
    {
      "anonymous": false,
      "inputs": [
        {
          "indexed": true,
          "internalType": "address",
          "name": "previousOwner",
          "type": "address"
        },
        {
          "indexed": true,
          "internalType": "address",
          "name": "newOwner",
          "type": "address"
        }
      ],
      "name": "OwnershipTransferred",
      "type": "event"
    },
    {
      "anonymous": false,
      "inputs": [
        {
          "indexed": true,
          "internalType": "address",
          "name": "operator",
          "type": "address"
        },
        {
          "indexed": true,
          "internalType": "address",
          "name": "from",
          "type": "address"
        },
        {
          "indexed": false,
          "internalType": "uint256",
          "name": "value",
          "type": "uint256"
        },
        {
          "indexed": false,
          "internalType": "bytes",
          "name": "data",
          "type": "bytes"
        }
      ],
      "name": "Redeemed",
      "type": "event"
    },
    {
      "anonymous": false,
      "inputs": [
        {
          "indexed": true,
          "internalType": "bytes32",
          "name": "partition",
          "type": "bytes32"
        },
        {
          "indexed": true,
          "internalType": "address",
          "name": "operator",
          "type": "address"
        },
        {
          "indexed": true,
          "internalType": "address",
          "name": "from",
          "type": "address"
        },
        {
          "indexed": false,
          "internalType": "uint256",
          "name": "value",
          "type": "uint256"
        },
        {
          "indexed": false,
          "internalType": "bytes",
          "name": "operatorData",
          "type": "bytes"
        }
      ],
      "name": "RedeemedByPartition",
      "type": "event"
    },
    {
      "anonymous": false,
      "inputs": [
        {
          "indexed": true,
          "internalType": "address",
          "name": "operator",
          "type": "address"
        },
        {
          "indexed": true,
          "internalType": "address",
          "name": "tokenHolder",
          "type": "address"
        }
      ],
      "name": "RevokedOperator",
      "type": "event"
    },
    {
      "anonymous": false,
      "inputs": [
        {
          "indexed": true,
          "internalType": "bytes32",
          "name": "partition",
          "type": "bytes32"
        },
        {
          "indexed": true,
          "internalType": "address",
          "name": "operator",
          "type": "address"
        },
        {
          "indexed": true,
          "internalType": "address",
          "name": "tokenHolder",
          "type": "address"
        }
      ],
      "name": "RevokedOperatorByPartition",
      "type": "event"
    },
    {
      "anonymous": false,
      "inputs": [
        {
          "indexed": true,
          "internalType": "address",
          "name": "from",
          "type": "address"
        },
        {
          "indexed": true,
          "internalType": "address",
          "name": "to",
          "type": "address"
        },
        {
          "indexed": false,
          "internalType": "uint256",
          "name": "value",
          "type": "uint256"
        }
      ],
      "name": "Transfer",
      "type": "event"
    },
    {
      "anonymous": false,
      "inputs": [
        {
          "indexed": true,
          "internalType": "bytes32",
          "name": "fromPartition",
          "type": "bytes32"
        },
        {
          "indexed": false,
          "internalType": "address",
          "name": "operator",
          "type": "address"
        },
        {
          "indexed": true,
          "internalType": "address",
          "name": "from",
          "type": "address"
        },
        {
          "indexed": true,
          "internalType": "address",
          "name": "to",
          "type": "address"
        },
        {
          "indexed": false,
          "internalType": "uint256",
          "name": "value",
          "type": "uint256"
        },
        {
          "indexed": false,
          "internalType": "bytes",
          "name": "data",
          "type": "bytes"
        },
        {
          "indexed": false,
          "internalType": "bytes",
          "name": "operatorData",
          "type": "bytes"
        }
      ],
      "name": "TransferByPartition",
      "type": "event"
    },
    {
      "inputs": [],
      "name": "owner",
      "outputs": [
        {
          "internalType": "address",
          "name": "",
          "type": "address"
        }
      ],
      "stateMutability": "view",
      "type": "function",
      "constant": true
    },
    {
      "inputs": [],
      "name": "renounceOwnership",
      "outputs": [],
      "stateMutability": "nonpayable",
      "type": "function"
    },
    {
      "inputs": [
        {
          "internalType": "address",
          "name": "newOwner",
          "type": "address"
        }
      ],
      "name": "transferOwnership",
      "outputs": [],
      "stateMutability": "nonpayable",
      "type": "function"
    },
    {
      "inputs": [
        {
          "internalType": "address",
          "name": "account",
          "type": "address"
        }
      ],
      "name": "isMinter",
      "outputs": [
        {
          "internalType": "bool",
          "name": "",
          "type": "bool"
        }
      ],
      "stateMutability": "view",
      "type": "function",
      "constant": true
    },
    {
      "inputs": [
        {
          "internalType": "address",
          "name": "account",
          "type": "address"
        }
      ],
      "name": "addMinter",
      "outputs": [],
      "stateMutability": "nonpayable",
      "type": "function"
    },
    {
      "inputs": [
        {
          "internalType": "address",
          "name": "account",
          "type": "address"
        }
      ],
      "name": "removeMinter",
      "outputs": [],
      "stateMutability": "nonpayable",
      "type": "function"
    },
    {
      "inputs": [],
      "name": "renounceMinter",
      "outputs": [],
      "stateMutability": "nonpayable",
      "type": "function"
    },
    {
      "inputs": [],
      "name": "totalSupply",
      "outputs": [
        {
          "internalType": "uint256",
          "name": "",
          "type": "uint256"
        }
      ],
      "stateMutability": "view",
      "type": "function",
      "constant": true
    },
    {
      "inputs": [
        {
          "internalType": "address",
          "name": "tokenHolder",
          "type": "address"
        }
      ],
      "name": "balanceOf",
      "outputs": [
        {
          "internalType": "uint256",
          "name": "",
          "type": "uint256"
        }
      ],
      "stateMutability": "view",
      "type": "function",
      "constant": true
    },
    {
      "inputs": [
        {
          "internalType": "address",
          "name": "to",
          "type": "address"
        },
        {
          "internalType": "uint256",
          "name": "value",
          "type": "uint256"
        }
      ],
      "name": "transfer",
      "outputs": [
        {
          "internalType": "bool",
          "name": "",
          "type": "bool"
        }
      ],
      "stateMutability": "nonpayable",
      "type": "function"
    },
    {
      "inputs": [
        {
          "internalType": "address",
          "name": "owner",
          "type": "address"
        },
        {
          "internalType": "address",
          "name": "spender",
          "type": "address"
        }
      ],
      "name": "allowance",
      "outputs": [
        {
          "internalType": "uint256",
          "name": "",
          "type": "uint256"
        }
      ],
      "stateMutability": "view",
      "type": "function",
      "constant": true
    },
    {
      "inputs": [
        {
          "internalType": "address",
          "name": "spender",
          "type": "address"
        },
        {
          "internalType": "uint256",
          "name": "value",
          "type": "uint256"
        }
      ],
      "name": "approve",
      "outputs": [
        {
          "internalType": "bool",
          "name": "",
          "type": "bool"
        }
      ],
      "stateMutability": "nonpayable",
      "type": "function"
    },
    {
      "inputs": [
        {
          "internalType": "address",
          "name": "from",
          "type": "address"
        },
        {
          "internalType": "address",
          "name": "to",
          "type": "address"
        },
        {
          "internalType": "uint256",
          "name": "value",
          "type": "uint256"
        }
      ],
      "name": "transferFrom",
      "outputs": [
        {
          "internalType": "bool",
          "name": "",
          "type": "bool"
        }
      ],
      "stateMutability": "nonpayable",
      "type": "function"
    },
    {
      "inputs": [
        {
          "internalType": "bytes32",
          "name": "documentName",
          "type": "bytes32"
        }
      ],
      "name": "getDocument",
      "outputs": [
        {
          "internalType": "string",
          "name": "",
          "type": "string"
        },
        {
          "internalType": "bytes32",
          "name": "",
          "type": "bytes32"
        },
        {
          "internalType": "uint256",
          "name": "",
          "type": "uint256"
        }
      ],
      "stateMutability": "view",
      "type": "function",
      "constant": true
    },
    {
      "inputs": [
        {
          "internalType": "bytes32",
          "name": "documentName",
          "type": "bytes32"
        },
        {
          "internalType": "string",
          "name": "uri",
          "type": "string"
        },
        {
          "internalType": "bytes32",
          "name": "documentHash",
          "type": "bytes32"
        }
      ],
      "name": "setDocument",
      "outputs": [],
      "stateMutability": "nonpayable",
      "type": "function"
    },
    {
      "inputs": [
        {
          "internalType": "bytes32",
          "name": "documentName",
          "type": "bytes32"
        }
      ],
      "name": "removeDocument",
      "outputs": [],
      "stateMutability": "nonpayable",
      "type": "function"
    },
    {
      "inputs": [],
      "name": "getAllDocuments",
      "outputs": [
        {
          "internalType": "bytes32[]",
          "name": "",
          "type": "bytes32[]"
        }
      ],
      "stateMutability": "view",
      "type": "function",
      "constant": true
    },
    {
      "inputs": [
        {
          "internalType": "bytes32",
          "name": "partition",
          "type": "bytes32"
        },
        {
          "internalType": "address",
          "name": "tokenHolder",
          "type": "address"
        }
      ],
      "name": "balanceOfByPartition",
      "outputs": [
        {
          "internalType": "uint256",
          "name": "",
          "type": "uint256"
        }
      ],
      "stateMutability": "view",
      "type": "function",
      "constant": true
    },
    {
      "inputs": [
        {
          "internalType": "address",
          "name": "tokenHolder",
          "type": "address"
        }
      ],
      "name": "partitionsOf",
      "outputs": [
        {
          "internalType": "bytes32[]",
          "name": "",
          "type": "bytes32[]"
        }
      ],
      "stateMutability": "view",
      "type": "function",
      "constant": true
    },
    {
      "inputs": [
        {
          "internalType": "address",
          "name": "to",
          "type": "address"
        },
        {
          "internalType": "uint256",
          "name": "value",
          "type": "uint256"
        },
        {
          "internalType": "bytes",
          "name": "data",
          "type": "bytes"
        }
      ],
      "name": "transferWithData",
      "outputs": [],
      "stateMutability": "nonpayable",
      "type": "function"
    },
    {
      "inputs": [
        {
          "internalType": "address",
          "name": "from",
          "type": "address"
        },
        {
          "internalType": "address",
          "name": "to",
          "type": "address"
        },
        {
          "internalType": "uint256",
          "name": "value",
          "type": "uint256"
        },
        {
          "internalType": "bytes",
          "name": "data",
          "type": "bytes"
        }
      ],
      "name": "transferFromWithData",
      "outputs": [],
      "stateMutability": "nonpayable",
      "type": "function"
    },
    {
      "inputs": [
        {
          "internalType": "bytes32",
          "name": "partition",
          "type": "bytes32"
        },
        {
          "internalType": "address",
          "name": "to",
          "type": "address"
        },
        {
          "internalType": "uint256",
          "name": "value",
          "type": "uint256"
        },
        {
          "internalType": "bytes",
          "name": "data",
          "type": "bytes"
        }
      ],
      "name": "transferByPartition",
      "outputs": [
        {
          "internalType": "bytes32",
          "name": "",
          "type": "bytes32"
        }
      ],
      "stateMutability": "nonpayable",
      "type": "function"
    },
    {
      "inputs": [
        {
          "internalType": "bytes32",
          "name": "partition",
          "type": "bytes32"
        },
        {
          "internalType": "address",
          "name": "from",
          "type": "address"
        },
        {
          "internalType": "address",
          "name": "to",
          "type": "address"
        },
        {
          "internalType": "uint256",
          "name": "value",
          "type": "uint256"
        },
        {
          "internalType": "bytes",
          "name": "data",
          "type": "bytes"
        },
        {
          "internalType": "bytes",
          "name": "operatorData",
          "type": "bytes"
        }
      ],
      "name": "operatorTransferByPartition",
      "outputs": [
        {
          "internalType": "bytes32",
          "name": "",
          "type": "bytes32"
        }
      ],
      "stateMutability": "nonpayable",
      "type": "function"
    },
    {
      "inputs": [],
      "name": "isControllable",
      "outputs": [
        {
          "internalType": "bool",
          "name": "",
          "type": "bool"
        }
      ],
      "stateMutability": "view",
      "type": "function",
      "constant": true
    },
    {
      "inputs": [
        {
          "internalType": "address",
          "name": "operator",
          "type": "address"
        }
      ],
      "name": "authorizeOperator",
      "outputs": [],
      "stateMutability": "nonpayable",
      "type": "function"
    },
    {
      "inputs": [
        {
          "internalType": "address",
          "name": "operator",
          "type": "address"
        }
      ],
      "name": "revokeOperator",
      "outputs": [],
      "stateMutability": "nonpayable",
      "type": "function"
    },
    {
      "inputs": [
        {
          "internalType": "bytes32",
          "name": "partition",
          "type": "bytes32"
        },
        {
          "internalType": "address",
          "name": "operator",
          "type": "address"
        }
      ],
      "name": "authorizeOperatorByPartition",
      "outputs": [],
      "stateMutability": "nonpayable",
      "type": "function"
    },
    {
      "inputs": [
        {
          "internalType": "bytes32",
          "name": "partition",
          "type": "bytes32"
        },
        {
          "internalType": "address",
          "name": "operator",
          "type": "address"
        }
      ],
      "name": "revokeOperatorByPartition",
      "outputs": [],
      "stateMutability": "nonpayable",
      "type": "function"
    },
    {
      "inputs": [
        {
          "internalType": "address",
          "name": "operator",
          "type": "address"
        },
        {
          "internalType": "address",
          "name": "tokenHolder",
          "type": "address"
        }
      ],
      "name": "isOperator",
      "outputs": [
        {
          "internalType": "bool",
          "name": "",
          "type": "bool"
        }
      ],
      "stateMutability": "view",
      "type": "function",
      "constant": true
    },
    {
      "inputs": [
        {
          "internalType": "bytes32",
          "name": "partition",
          "type": "bytes32"
        },
        {
          "internalType": "address",
          "name": "operator",
          "type": "address"
        },
        {
          "internalType": "address",
          "name": "tokenHolder",
          "type": "address"
        }
      ],
      "name": "isOperatorForPartition",
      "outputs": [
        {
          "internalType": "bool",
          "name": "",
          "type": "bool"
        }
      ],
      "stateMutability": "view",
      "type": "function",
      "constant": true
    },
    {
      "inputs": [],
      "name": "isIssuable",
      "outputs": [
        {
          "internalType": "bool",
          "name": "",
          "type": "bool"
        }
      ],
      "stateMutability": "view",
      "type": "function",
      "constant": true
    },
    {
      "inputs": [
        {
          "internalType": "address",
          "name": "tokenHolder",
          "type": "address"
        },
        {
          "internalType": "uint256",
          "name": "value",
          "type": "uint256"
        },
        {
          "internalType": "bytes",
          "name": "data",
          "type": "bytes"
        }
      ],
      "name": "issue",
      "outputs": [],
      "stateMutability": "nonpayable",
      "type": "function"
    },
    {
      "inputs": [
        {
          "internalType": "bytes32",
          "name": "partition",
          "type": "bytes32"
        },
        {
          "internalType": "address",
          "name": "tokenHolder",
          "type": "address"
        },
        {
          "internalType": "uint256",
          "name": "value",
          "type": "uint256"
        },
        {
          "internalType": "bytes",
          "name": "data",
          "type": "bytes"
        }
      ],
      "name": "issueByPartition",
      "outputs": [],
      "stateMutability": "nonpayable",
      "type": "function"
    },
    {
      "inputs": [
        {
          "internalType": "uint256",
          "name": "value",
          "type": "uint256"
        },
        {
          "internalType": "bytes",
          "name": "data",
          "type": "bytes"
        }
      ],
      "name": "redeem",
      "outputs": [],
      "stateMutability": "nonpayable",
      "type": "function"
    },
    {
      "inputs": [
        {
          "internalType": "address",
          "name": "from",
          "type": "address"
        },
        {
          "internalType": "uint256",
          "name": "value",
          "type": "uint256"
        },
        {
          "internalType": "bytes",
          "name": "data",
          "type": "bytes"
        }
      ],
      "name": "redeemFrom",
      "outputs": [],
      "stateMutability": "nonpayable",
      "type": "function"
    },
    {
      "inputs": [
        {
          "internalType": "bytes32",
          "name": "partition",
          "type": "bytes32"
        },
        {
          "internalType": "uint256",
          "name": "value",
          "type": "uint256"
        },
        {
          "internalType": "bytes",
          "name": "data",
          "type": "bytes"
        }
      ],
      "name": "redeemByPartition",
      "outputs": [],
      "stateMutability": "nonpayable",
      "type": "function"
    },
    {
      "inputs": [
        {
          "internalType": "bytes32",
          "name": "partition",
          "type": "bytes32"
        },
        {
          "internalType": "address",
          "name": "tokenHolder",
          "type": "address"
        },
        {
          "internalType": "uint256",
          "name": "value",
          "type": "uint256"
        },
        {
          "internalType": "bytes",
          "name": "operatorData",
          "type": "bytes"
        }
      ],
      "name": "operatorRedeemByPartition",
      "outputs": [],
      "stateMutability": "nonpayable",
      "type": "function"
    },
    {
      "inputs": [],
      "name": "name",
      "outputs": [
        {
          "internalType": "string",
          "name": "",
          "type": "string"
        }
      ],
      "stateMutability": "view",
      "type": "function",
      "constant": true
    },
    {
      "inputs": [],
      "name": "symbol",
      "outputs": [
        {
          "internalType": "string",
          "name": "",
          "type": "string"
        }
      ],
      "stateMutability": "view",
      "type": "function",
      "constant": true
    },
    {
      "inputs": [],
      "name": "decimals",
      "outputs": [
        {
          "internalType": "uint8",
          "name": "",
          "type": "uint8"
        }
      ],
      "stateMutability": "pure",
      "type": "function",
      "constant": true
    },
    {
      "inputs": [],
      "name": "granularity",
      "outputs": [
        {
          "internalType": "uint256",
          "name": "",
          "type": "uint256"
        }
      ],
      "stateMutability": "view",
      "type": "function",
      "constant": true
    },
    {
      "inputs": [],
      "name": "totalPartitions",
      "outputs": [
        {
          "internalType": "bytes32[]",
          "name": "",
          "type": "bytes32[]"
        }
      ],
      "stateMutability": "view",
      "type": "function",
      "constant": true
    },
    {
      "inputs": [
        {
          "internalType": "bytes32",
          "name": "partition",
          "type": "bytes32"
        }
      ],
      "name": "totalSupplyByPartition",
      "outputs": [
        {
          "internalType": "uint256",
          "name": "",
          "type": "uint256"
        }
      ],
      "stateMutability": "view",
      "type": "function",
      "constant": true
    },
    {
      "inputs": [],
      "name": "renounceControl",
      "outputs": [],
      "stateMutability": "nonpayable",
      "type": "function"
    },
    {
      "inputs": [],
      "name": "renounceIssuance",
      "outputs": [],
      "stateMutability": "nonpayable",
      "type": "function"
    },
    {
      "inputs": [],
      "name": "controllers",
      "outputs": [
        {
          "internalType": "address[]",
          "name": "",
          "type": "address[]"
        }
      ],
      "stateMutability": "view",
      "type": "function",
      "constant": true
    },
    {
      "inputs": [
        {
          "internalType": "bytes32",
          "name": "partition",
          "type": "bytes32"
        }
      ],
      "name": "controllersByPartition",
      "outputs": [
        {
          "internalType": "address[]",
          "name": "",
          "type": "address[]"
        }
      ],
      "stateMutability": "view",
      "type": "function",
      "constant": true
    },
    {
      "inputs": [
        {
          "internalType": "address[]",
          "name": "operators",
          "type": "address[]"
        }
      ],
      "name": "setControllers",
      "outputs": [],
      "stateMutability": "nonpayable",
      "type": "function"
    },
    {
      "inputs": [
        {
          "internalType": "bytes32",
          "name": "partition",
          "type": "bytes32"
        },
        {
          "internalType": "address[]",
          "name": "operators",
          "type": "address[]"
        }
      ],
      "name": "setPartitionControllers",
      "outputs": [],
      "stateMutability": "nonpayable",
      "type": "function"
    },
    {
      "inputs": [],
      "name": "getDefaultPartitions",
      "outputs": [
        {
          "internalType": "bytes32[]",
          "name": "",
          "type": "bytes32[]"
        }
      ],
      "stateMutability": "view",
      "type": "function",
      "constant": true
    },
    {
      "inputs": [
        {
          "internalType": "bytes32[]",
          "name": "partitions",
          "type": "bytes32[]"
        }
      ],
      "name": "setDefaultPartitions",
      "outputs": [],
      "stateMutability": "nonpayable",
      "type": "function"
    },
    {
      "inputs": [
        {
          "internalType": "bytes32",
          "name": "partition",
          "type": "bytes32"
        },
        {
          "internalType": "address",
          "name": "owner",
          "type": "address"
        },
        {
          "internalType": "address",
          "name": "spender",
          "type": "address"
        }
      ],
      "name": "allowanceByPartition",
      "outputs": [
        {
          "internalType": "uint256",
          "name": "",
          "type": "uint256"
        }
      ],
      "stateMutability": "view",
      "type": "function",
      "constant": true
    },
    {
      "inputs": [
        {
          "internalType": "bytes32",
          "name": "partition",
          "type": "bytes32"
        },
        {
          "internalType": "address",
          "name": "spender",
          "type": "address"
        },
        {
          "internalType": "uint256",
          "name": "value",
          "type": "uint256"
        }
      ],
      "name": "approveByPartition",
      "outputs": [
        {
          "internalType": "bool",
          "name": "",
          "type": "bool"
        }
      ],
      "stateMutability": "nonpayable",
      "type": "function"
    }
  ],
  "bytecode": "0x60806040523480156200001157600080fd5b50604051620044f2380380620044f283398101604081905262000034916200057d565b6200004862000042620000dd565b620000e1565b620000533362000131565b8451620000689060029060208801906200033d565b5083516200007e9060039060208701906200033d565b50600060055560018310156200009357600080fd5b6004839055620000a38262000183565b8051620000b8906012906020840190620003cc565b50506006805461ff001960ff199091166001171661010017905550620007f092505050565b3390565b600080546001600160a01b038381166001600160a01b0319831681178455604051919092169283917f8be0079c531659141344cd1fd0a4f28419497f9722a3daafe3b4186f6b6457e09190a35050565b6200014c8160016200029860201b62001e8a1790919060201c565b6040516001600160a01b038216907f6ae172837ea30b801fbfcdd4108aa1d5bf8ff775444fd70256b44e6bf3dfc3f690600090a250565b60005b601454811015620002025760006015600060148481548110620001b957634e487b7160e01b600052603260045260246000fd5b6000918252602080832091909101546001600160a01b031683528201929092526040019020805460ff191691151591909117905580620001f981620007b2565b91505062000186565b5060005b81518110156200027e576001601560008484815181106200023757634e487b7160e01b600052603260045260246000fd5b6020908102919091018101516001600160a01b03168252810191909152604001600020805460ff1916911515919091179055806200027581620007b2565b91505062000206565b5080516200029490601490602084019062000409565b5050565b620002a48282620002f2565b15620002cd5760405162461bcd60e51b8152600401620002c490620006aa565b60405180910390fd5b6001600160a01b0316600090815260209190915260409020805460ff19166001179055565b60006001600160a01b0382166200031d5760405162461bcd60e51b8152600401620002c490620006e1565b506001600160a01b03166000908152602091909152604090205460ff1690565b8280546200034b9062000775565b90600052602060002090601f0160209004810192826200036f5760008555620003ba565b82601f106200038a57805160ff1916838001178555620003ba565b82800160010185558215620003ba579182015b82811115620003ba5782518255916020019190600101906200039d565b50620003c892915062000461565b5090565b828054828255906000526020600020908101928215620003ba5791602002820182811115620003ba5782518255916020019190600101906200039d565b828054828255906000526020600020908101928215620003ba579160200282015b82811115620003ba57825182546001600160a01b0319166001600160a01b039091161782556020909201916001909101906200042a565b5b80821115620003c8576000815560010162000462565b600082601f83011262000489578081fd5b81516020620004a26200049c836200074f565b62000723565b8281528181019085830183850287018401881015620004bf578586fd5b855b85811015620004df57815184529284019290840190600101620004c1565b5090979650505050505050565b600082601f830112620004fd578081fd5b81516001600160401b03811115620005195762000519620007da565b60206200052f601f8301601f1916820162000723565b828152858284870101111562000543578384fd5b835b838110156200056257858101830151828201840152820162000545565b838111156200057357848385840101525b5095945050505050565b600080600080600060a0868803121562000595578081fd5b85516001600160401b0380821115620005ac578283fd5b620005ba89838a01620004ec565b9650602091508188015181811115620005d1578384fd5b620005df8a828b01620004ec565b96505060408801519450606088015181811115620005fb578384fd5b8801601f81018a136200060c578384fd5b80516200061d6200049c826200074f565b81815284810190838601868402850187018e10156200063a578788fd5b8794505b83851015620006735780516001600160a01b03811681146200065e578889fd5b8352600194909401939186019186016200063e565b5060808c01519097509450505050808211156200068e578283fd5b506200069d8882890162000478565b9150509295509295909350565b6020808252601f908201527f526f6c65733a206163636f756e7420616c72656164792068617320726f6c6500604082015260600190565b60208082526022908201527f526f6c65733a206163636f756e7420697320746865207a65726f206164647265604082015261737360f01b606082015260800190565b6040518181016001600160401b0381118282101715620007475762000747620007da565b604052919050565b60006001600160401b038211156200076b576200076b620007da565b5060209081020190565b6002810460018216806200078a57607f821691505b60208210811415620007ac57634e487b7160e01b600052602260045260246000fd5b50919050565b6000600019821415620007d357634e487b7160e01b81526011600452602481fd5b5060010190565b634e487b7160e01b600052604160045260246000fd5b613cf280620008006000396000f3fe608060405234801561001057600080fd5b50600436106102675760003560e01c8063010648ca1461026c57806306fdde0314610281578063095ea7b31461029f578063103ef9e1146102bf57806314d1e62f146102d2578063168ecec5146102e557806316e1aed4146102f857806317ec83ca1461030b57806318160ddd1461032b57806323b872dd146103335780632535f762146103465780632f1cae85146103595780633092afd51461036157806330e8280314610374578063313ce567146103875780634c783bf51461039c578063556f0dc7146103a457806362eb0068146103ac57806367c84919146103bf57806369598efe146103d25780636c30d170146103e75780636d77cad6146103ef57806370a0823114610402578063715018a614610415578063740ab8f41461041d5780637cc0c3a714610430578063861ed3ea146104455780638c0dee9c146104585780638da5cb5b1461046b578063959b8c3f1461048057806395d89b41146104935780639675193c1461049b578063983b2d56146104ae57806398650275146104c157806398ddcec7146104c95780639fa5f50b146104dc578063a26734dc146104e4578063a9059cbb146104f7578063aa271e1a1461050a578063b10d6b411461051d578063b6363cf21461053f578063bb3acde914610552578063bcfdc0cf14610565578063c35018481461056d578063ca281fd914610580578063dd62ed3e14610588578063e77c646d1461059b578063ea74838a146105ae578063ec9a6e87146105c1578063ee532f31146105d4578063f2fde38b146105e7578063f3d490db146105fa578063fad8b32a1461060d575b600080fd5b61027f61027a366004613664565b610620565b005b61028961075a565b604051610296919061389c565b60405180910390f35b6102b26102ad3660046133fc565b6107ec565b6040516102969190613850565b61027f6102cd3660046134d3565b610888565b6102b26102e03660046135d0565b6108ec565b61027f6102f33660046134d3565b61098a565b61027f61030636600461361b565b6109eb565b61031e6103193660046134f5565b610a6c565b604051610296919061385b565b61031e610a9c565b6102b2610341366004613355565b610aa2565b61027f610354366004613425565b610bc4565b6102b2610c0d565b61027f61036f366004613309565b610c1b565b61031e6103823660046134d3565b610c63565b61038f610c88565b6040516102969190613bb4565b6102b2610c8d565b61031e610c96565b61027f6103ba3660046136b4565b610c9c565b61027f6103cd3660046135f4565b610ced565b6103da610d9a565b6040516102969190613818565b61027f610df1565b6102b26103fd3660046134f5565b610e3d565b61031e610410366004613309565b610e52565b61027f610e71565b6103da61042b366004613309565b610ebc565b610438610f28565b60405161029691906137cb565b6104386104533660046134bb565b610f89565b61031e610466366004613530565b610ff4565b610473611199565b6040516102969190613773565b61027f61048e366004613309565b6111a8565b610289611217565b61027f6104a9366004613425565b611226565b61027f6104bc366004613309565b611362565b61027f6113a7565b61027f6104d73660046135f4565b6113b0565b6103da611521565b61031e6104f23660046134bb565b611577565b6102b26105053660046133fc565b611589565b6102b2610518366004613309565b6115b0565b61053061052b3660046134bb565b6115c3565b604051610296939291906138d1565b6102b261054d366004613323565b6116a1565b61027f610560366004613425565b6116b4565b6103da6117a5565b61027f61057b3660046134bb565b6117fb565b61027f611a93565b61031e610596366004613323565b611ade565b61027f6105a93660046136ec565b611b09565b61027f6105bc36600461347c565b611b4b565b61027f6105cf36600461347c565b611bca565b61027f6105e2366004613390565b611c15565b61027f6105f5366004613309565b611d52565b61031e6106083660046135f4565b611dc0565b61027f61061b366004613309565b611e1e565b3360009081526015602052604090205460ff1661063c57600080fd5b604051806060016040528084848080601f0160208091040260200160405190810160405280939291908181526020018383808284376000920182905250938552505050602080830185905242604093840152878252600981529190208251805191926106ad92849290910190613106565b5060208281015160018301556040928301516002909201919091556000838152600a909152205461071857600b80546001810182557f0175b7a638427703f0dbe7bb9bbf987a2551717b34e79f33b5b1008d1fa01db901829055546000828152600a60205260409020555b837fb4c22d60cd550a815744f04e3ff5278bf19684565ee00e2b084041b6024bd6f684848460405161074c93929190613864565b60405180910390a250505050565b60606002805461076990613c30565b80601f016020809104026020016040519081016040528092919081815260200182805461079590613c30565b80156107e25780601f106107b7576101008083540402835291602001916107e2565b820191906000526020600020905b8154815290600101906020018083116107c557829003601f168201915b5050505050905090565b60006001600160a01b03831661081d5760405162461bcd60e51b8152600401610814906139dc565b60405180910390fd5b3360008181526008602090815260408083206001600160a01b03881680855292529182902085905590519091907f8c5be1e5ebec7d5bd14f71427d1e84f3dd0314c0f7b2291e5b200ac8c7c3b9259061087790869061385b565b60405180910390a350600192915050565b33600081815260176020908152604080832086845282528083206001600160a01b0386168085529252808320805460ff1916600117905551909185917f3646a897c70797ecc134b0adc32f471b07bf1d6f451133b0384badab531e3fd69190a45050565b60006001600160a01b0383166109145760405162461bcd60e51b8152600401610814906139dc565b6000848152601660209081526040808320338085529083528184206001600160a01b0388168086529352928190208590555190919086907ff061499aa77c2f6f5e25e34955a06623705344a88256cc861a121ec0bce5cfec9061097890879061385b565b60405180910390a45060019392505050565b33600081815260176020908152604080832086845282528083206001600160a01b0386168085529252808320805460ff1916905551909185917f3b287c4f1bab4df949b33bceacef984f544dc5d5479930d00e4ee8c9d8dd96f29190a45050565b6109f3611ed6565b6001600160a01b0316610a04611199565b6001600160a01b031614610a2a5760405162461bcd60e51b815260040161081490613a71565b610a6783838380806020026020016040519081016040528093929190818152602001838360200280828437600092019190915250611eda92505050565b505050565b60009283526016602090815260408085206001600160a01b03948516865282528085209290931684525290205490565b60055490565b6000610aae3385612019565b80610adc57506001600160a01b03841660009081526008602090815260408083203384529091529020548211155b610af85760405162461bcd60e51b815260040161081490613ae8565b6001600160a01b03841660009081526008602090815260408083203384529091529020548211610b79576001600160a01b0384166000908152600860209081526040808320338452909152902054610b509083612093565b6001600160a01b0385166000908152600860209081526040808320338452909152902055610b9e565b6001600160a01b03841660009081526008602090815260408083203384529091528120555b610bba338585856040518060200160405280600081525061209f565b5060019392505050565b610c073333868686868080601f01602080910402602001604051908101604052809392919081815260200183838082843760009201919091525061209f92505050565b50505050565b600654610100900460ff1690565b610c24336115b0565b80610c4e5750610c32611ed6565b6001600160a01b0316610c43611199565b6001600160a01b0316145b610c5757600080fd5b610c6081612217565b50565b6001600160a01b03166000908152601160209081526040808320938352929052205490565b601290565b60065460ff1690565b60045490565b610c078433338686868080601f016020809104026020016040519081016040528093929190818152602001838380828437600092018290525060408051602081019091529081529250612259915050565b610cf6336115b0565b80610d205750610d04611ed6565b6001600160a01b0316610d15611199565b6001600160a01b0316145b610d2957600080fd5b600654610100900460ff16610d505760405162461bcd60e51b815260040161081490613a14565b610d938533868686868080601f01602080910402602001604051908101604052809392919081815260200183838082843760009201919091525061230992505050565b5050505050565b6060600c8054806020026020016040519081016040528092919081815260200182805480156107e257602002820191906000526020600020905b815481526020019060010190808311610dd4575050505050905090565b610df9611ed6565b6001600160a01b0316610e0a611199565b6001600160a01b031614610e305760405162461bcd60e51b815260040161081490613a71565b6006805461ff0019169055565b6000610e4a848484612375565b949350505050565b6001600160a01b0381166000908152600760205260409020545b919050565b610e79611ed6565b6001600160a01b0316610e8a611199565b6001600160a01b031614610eb05760405162461bcd60e51b815260040161081490613a71565b610eba60006123f9565b565b6001600160a01b0381166000908152600f6020908152604091829020805483518184028101840190945280845260609392830182828015610f1c57602002820191906000526020600020905b815481526020019060010190808311610f08575b50505050509050919050565b606060148054806020026020016040519081016040528092919081815260200182805480156107e257602002820191906000526020600020905b81546001600160a01b03168152600190910190602001808311610f62575050505050905090565b600081815260186020908152604091829020805483518184028101840190945280845260609392830182828015610f1c57602002820191906000526020600020905b81546001600160a01b03168152600190910190602001808311610fcb5750505050509050919050565b600061100189338a612375565b80611036575060008981526016602090815260408083206001600160a01b038c16845282528083203384529091529020548611155b6110525760405162461bcd60e51b815260040161081490613ae8565b60008981526016602090815260408083206001600160a01b038c168452825280832033845290915290205486116110e85760008981526016602090815260408083206001600160a01b038c16845282528083203384529091529020546110b89087612093565b60008a81526016602090815260408083206001600160a01b038d1684528252808320338452909152902055611114565b60008981526016602090815260408083206001600160a01b038c16845282528083203384529091528120555b61118c89338a8a8a8a8a8080601f01602080910402602001604051908101604052809392919081815260200183838082843760009201919091525050604080516020601f8e018190048102820181019092528c815292508c91508b908190840183828082843760009201919091525061244992505050565b9998505050505050505050565b6000546001600160a01b031690565b6001600160a01b0381163314156111be57600080fd5b6001600160a01b0381166000818152601360209081526040808320338085529252808320805460ff19166001179055519092917ff4caeb2d6ca8932a215a353d0703c326ec2d81fc68170f320eb2ab49e9df61f991a350565b60606003805461076990613c30565b6112303385612019565b8061125e57506001600160a01b03841660009081526008602090815260408083203384529091529020548311155b61127a5760405162461bcd60e51b815260040161081490613ae8565b6001600160a01b038416600090815260086020908152604080832033845290915290205483116112fb576001600160a01b03841660009081526008602090815260408083203384529091529020546112d29084612093565b6001600160a01b0385166000908152600860209081526040808320338452909152902055611320565b6001600160a01b03841660009081526008602090815260408083203384529091528120555b610c0733858585858080601f01602080910402602001604051908101604052809392919081815260200183838082843760009201919091525061257292505050565b61136b336115b0565b806113955750611379611ed6565b6001600160a01b031661138a611199565b6001600160a01b0316145b61139e57600080fd5b610c60816126de565b610eba33612217565b6113bb853386612375565b806113f0575060008581526016602090815260408083206001600160a01b038816845282528083203384529091529020548311155b61140c5760405162461bcd60e51b8152600401610814906139f8565b60008581526016602090815260408083206001600160a01b0388168452825280832033845290915290205483116114a25760008581526016602090815260408083206001600160a01b038816845282528083203384529091529020546114729084612093565b60008681526016602090815260408083206001600160a01b038916845282528083203384529091529020556114ce565b60008581526016602090815260408083206001600160a01b038816845282528083203384529091528120555b610d93853386866040518060200160405280600081525087878080601f01602080910402602001604051908101604052809392919081815260200183838082843760009201919091525061225992505050565b6060600b8054806020026020016040519081016040528092919081815260200182805480156107e25760200282019190600052602060002090815481526020019060010190808311610dd4575050505050905090565b6000908152600e602052604090205490565b60006115a7333385856040518060200160405280600081525061209f565b50600192915050565b60006115bd600183612720565b92915050565b600081815260096020526040812080546060929182916115e290613c30565b151590506115ef57600080fd5b6000848152600960205260409020600181015460028201548254839061161490613c30565b80601f016020809104026020016040519081016040528092919081815260200182805461164090613c30565b801561168d5780601f106116625761010080835404028352916020019161168d565b820191906000526020600020905b81548152906001019060200180831161167057829003601f168201915b505050505092509250925092509193909250565b60006116ad8383612019565b9392505050565b6116bd336115b0565b806116e757506116cb611ed6565b6001600160a01b03166116dc611199565b6001600160a01b0316145b6116f057600080fd5b600654610100900460ff166117175760405162461bcd60e51b815260040161081490613a14565b6012546117365760405162461bcd60e51b815260040161081490613a14565b610c07601260008154811061175b57634e487b7160e01b600052603260045260246000fd5b906000526020600020015433868686868080601f01602080910402602001604051908101604052809392919081815260200183838082843760009201919091525061230992505050565b606060128054806020026020016040519081016040528092919081815260200182805480156107e25760200282019190600052602060002090815481526020019060010190808311610dd4575050505050905090565b3360009081526015602052604090205460ff1661182a5760405162461bcd60e51b81526004016108149061392d565b6000818152600960205260409020805461184390613c30565b151590506118635760405162461bcd60e51b815260040161081490613b3c565b60008181526009602052604080822081516060810190925280548290829061188a90613c30565b80601f01602080910402602001604051908101604052809291908181526020018280546118b690613c30565b80156119035780601f106118d857610100808354040283529160200191611903565b820191906000526020600020905b8154815290600101906020018083116118e657829003601f168201915b505050505081526020016001820154815260200160028201548152505090506000600a6000836020015181526020019081526020016000205490506000811161195e5760405162461bcd60e51b8152600401610814906139b5565b600b80546000919061197290600190613c19565b8154811061199057634e487b7160e01b600052603260045260246000fd5b9060005260206000200154905080600b6001846119ad9190613c19565b815481106119cb57634e487b7160e01b600052603260045260246000fd5b6000918252602080832090910192909255828152600a90915260409020829055600b805480611a0a57634e487b7160e01b600052603160045260246000fd5b600082815260208082208301600019908101839055909201909255848101518252600a815260408083208390558683526009909152812090611a4c828261318a565b506000600182018190556002909101558251602084015160405186927f3d9bba27d3e360d8c80645beed7e991454a8271bf6f269a24f7782be0f0d06549261074c926138af565b611a9b611ed6565b6001600160a01b0316611aac611199565b6001600160a01b031614611ad25760405162461bcd60e51b815260040161081490613a71565b6006805460ff19169055565b6001600160a01b03918216600090815260086020908152604080832093909416825291909152205490565b610a6733338585858080601f01602080910402602001604051908101604052809392919081815260200183838082843760009201919091525061257292505050565b611b53611ed6565b6001600160a01b0316611b64611199565b6001600160a01b031614611b8a5760405162461bcd60e51b815260040161081490613a71565b611bc682828080602002602001604051908101604052809392919081815260200183836020028082843760009201919091525061276892505050565b5050565b611bd2611ed6565b6001600160a01b0316611be3611199565b6001600160a01b031614611c095760405162461bcd60e51b815260040161081490613a71565b610a67601283836131c6565b611c1f3386612019565b80611c4d57506001600160a01b03851660009081526008602090815260408083203384529091529020548311155b611c695760405162461bcd60e51b815260040161081490613ae8565b6001600160a01b03851660009081526008602090815260408083203384529091529020548311611cea576001600160a01b0385166000908152600860209081526040808320338452909152902054611cc19084612093565b6001600160a01b0386166000908152600860209081526040808320338452909152902055611d0f565b6001600160a01b03851660009081526008602090815260408083203384529091528120555b610d933386868686868080601f01602080910402602001604051908101604052809392919081815260200183838082843760009201919091525061209f92505050565b611d5a611ed6565b6001600160a01b0316611d6b611199565b6001600160a01b031614611d915760405162461bcd60e51b815260040161081490613a71565b6001600160a01b038116611db75760405162461bcd60e51b81526004016108149061396f565b610c60816123f9565b6000611e14863333888888888080601f016020809104026020016040519081016040528093929190818152602001838380828437600092018290525060408051602081019091529081529250612449915050565b9695505050505050565b6001600160a01b038116331415611e3457600080fd5b6001600160a01b0381166000818152601360209081526040808320338085529252808320805460ff19169055519092917f50546e66e5f44d728365dc3908c63bc5cfeeab470722c1677e3073a6ac294aa191a350565b611e948282612720565b15611eb15760405162461bcd60e51b8152600401610814906138f6565b6001600160a01b0316600090815260209190915260409020805460ff19166001179055565b3390565b60005b600083815260186020526040902054811015611f7457600083815260196020908152604080832060189092528220805483919085908110611f2e57634e487b7160e01b600052603260045260246000fd5b6000918252602080832091909101546001600160a01b031683528201929092526040019020805460ff191691151591909117905580611f6c81613c6b565b915050611edd565b5060005b8151811015611ff9576000838152601960205260408120835160019290859085908110611fb557634e487b7160e01b600052603260045260246000fd5b6020908102919091018101516001600160a01b03168252810191909152604001600020805460ff191691151591909117905580611ff181613c6b565b915050611f78565b5060008281526018602090815260409091208251610a6792840190613201565b6000816001600160a01b0316836001600160a01b0316148061206057506001600160a01b0380841660009081526013602090815260408083209386168352929052205460ff165b806116ad575060065460ff1680156116ad575050506001600160a01b031660009081526015602052604090205460ff1690565b60006116ad8284613c19565b6012546120be5760405162461bcd60e51b815260040161081490613a14565b816000805b6012548110156121ef576001600160a01b0387166000908152601160205260408120601280549192918490811061210a57634e487b7160e01b600052603260045260246000fd5b90600052602060002001548152602001908152602001600020549150818311612180576121766012828154811061215157634e487b7160e01b600052603260045260246000fd5b9060005260206000200154898989878960405180602001604052806000815250612449565b50600092506121ef565b81156121dd576121cf601282815481106121aa57634e487b7160e01b600052603260045260246000fd5b9060005260206000200154898989868960405180602001604052806000815250612449565b506121da8284613c19565b92505b806121e781613c6b565b9150506120c3565b50811561220e5760405162461bcd60e51b815260040161081490613b04565b50505050505050565b61222260018261286d565b6040516001600160a01b038216907fe94479a9f7e1952cc78f2d6baab678adc1b772d936c6583def489e524cb6669290600090a250565b6001600160a01b038416600090815260116020908152604080832089845290915290205483111561229c5760405162461bcd60e51b815260040161081490613b04565b6122a78487856128b5565b6122b385858585612bc8565b836001600160a01b0316856001600160a01b0316877fce306c3dbc4a497124b5a4f2be8388b41084c1d74663da27ecee1186c00239bf86856040516122f9929190613b6b565b60405180910390a4505050505050565b61231584848484612d27565b612320838684612e33565b826001600160a01b0316846001600160a01b0316867ff0ded82afbb1bb3ff3fc48cb2a26584aa84e4af0bf309c804ecdb94d0f6a98bb8585604051612366929190613b84565b60405180910390a45050505050565b60006123818383612019565b806123b957506001600160a01b03808316600090815260176020908152604080832088845282528083209387168352929052205460ff165b80610e4a575060065460ff168015610e4a5750505060009182526019602090815260408084206001600160a01b0393909316845291905290205460ff1690565b600080546001600160a01b038381166001600160a01b0319831681178455604051919092169283917f8be0079c531659141344cd1fd0a4f28419497f9722a3daafe3b4186f6b6457e09190a35050565b6001600160a01b03851660009081526011602090815260408083208a845290915281205484111561248c5760405162461bcd60e51b815260040161081490613b04565b81518890158015906124a057506040845110155b156124b2576124af8985612f71565b90505b6124bd878a876128b5565b6124c8878787612f9d565b6124d3868287612e33565b856001600160a01b0316876001600160a01b03168a7fff4e9a26af4eb73b8bacfaa4abd4fea03d9448e7b912dc5ff4019048875aa2d48b89898960405161251d9493929190613787565b60405180910390a48881146125665780897f67c8ba31d2dd11f1384577b3405b04ed91eed1231e408432ad2458cab37b2fa18760405161255d919061385b565b60405180910390a35b98975050505050505050565b6012546125915760405162461bcd60e51b815260040161081490613a14565b816000805b6012548110156126b7576001600160a01b038616600090815260116020526040812060128054919291849081106125dd57634e487b7160e01b600052603260045260246000fd5b90600052602060002001548152602001908152602001600020549150818311612651576126486012828154811061262457634e487b7160e01b600052603260045260246000fd5b90600052602060002001548888868860405180602001604052806000815250612259565b600092506126b7565b6126996012828154811061267557634e487b7160e01b600052603260045260246000fd5b90600052602060002001548888858860405180602001604052806000815250612259565b6126a38284613c19565b9250806126af81613c6b565b915050612596565b5081156126d65760405162461bcd60e51b815260040161081490613b04565b505050505050565b6126e9600182611e8a565b6040516001600160a01b038216907f6ae172837ea30b801fbfcdd4108aa1d5bf8ff775444fd70256b44e6bf3dfc3f690600090a250565b60006001600160a01b0382166127485760405162461bcd60e51b815260040161081490613aa6565b506001600160a01b03166000908152602091909152604090205460ff1690565b60005b6014548110156127e2576000601560006014848154811061279c57634e487b7160e01b600052603260045260246000fd5b6000918252602080832091909101546001600160a01b031683528201929092526040019020805460ff1916911515919091179055806127da81613c6b565b91505061276b565b5060005b81518110156128595760016015600084848151811061281557634e487b7160e01b600052603260045260246000fd5b6020908102919091018101516001600160a01b03168252810191909152604001600020805460ff19169115159190911790558061285181613c6b565b9150506127e6565b508051611bc6906014906020840190613201565b6128778282612720565b6128935760405162461bcd60e51b815260040161081490613a30565b6001600160a01b0316600090815260209190915260409020805460ff19169055565b6001600160a01b03831660009081526011602090815260408083208584529091529020546128e39082612093565b6001600160a01b0384166000908152601160209081526040808320868452825280832093909355600e9052205461291a9082612093565b6000838152600e60205260409020819055612a31576000828152600d60205260409020548061295b5760405162461bcd60e51b815260040161081490613953565b600c80546000919061296f90600190613c19565b8154811061298d57634e487b7160e01b600052603260045260246000fd5b9060005260206000200154905080600c6001846129aa9190613c19565b815481106129c857634e487b7160e01b600052603260045260246000fd5b6000918252602080832090910192909255828152600d90915260409020829055600c805480612a0757634e487b7160e01b600052603160045260246000fd5b600082815260208082208301600019908101839055909201909255858252600d9052604081205550505b6001600160a01b0383166000908152601160209081526040808320858452909152902054610a67576001600160a01b038316600090815260106020908152604080832085845290915290205480612a9a5760405162461bcd60e51b815260040161081490613953565b6001600160a01b0384166000908152600f602052604081208054612ac090600190613c19565b81548110612ade57634e487b7160e01b600052603260045260246000fd5b60009182526020808320909101546001600160a01b0388168352600f90915260409091209091508190612b12600185613c19565b81548110612b3057634e487b7160e01b600052603260045260246000fd5b60009182526020808320909101929092556001600160a01b0387168082526010835260408083208584528452808320869055908252600f90925220805480612b8857634e487b7160e01b600052603160045260246000fd5b6000828152602080822083016000199081018390559092019092556001600160a01b03871682526010815260408083208784529091528120555050505050565b612bd1826130bf565b612bed5760405162461bcd60e51b815260040161081490613953565b6001600160a01b038316612c135760405162461bcd60e51b8152600401610814906139dc565b6001600160a01b038316600090815260076020526040902054821115612c4b5760405162461bcd60e51b815260040161081490613b04565b6001600160a01b038316600090815260076020526040902054612c6e9083612093565b6001600160a01b038416600090815260076020526040902055600554612c949083612093565b600581905550826001600160a01b0316846001600160a01b03167fb7d0d6b60740753e9f16692a2f479472a1385aec2420fa43225b02f2ffa1afe78484604051612cdf929190613b6b565b60405180910390a360006001600160a01b0316836001600160a01b0316600080516020613c9d83398151915284604051612d19919061385b565b60405180910390a350505050565b612d30826130bf565b612d4c5760405162461bcd60e51b815260040161081490613953565b6001600160a01b038316612d725760405162461bcd60e51b815260040161081490613b20565b600554612d7f90836130e2565b6005556001600160a01b038316600090815260076020526040902054612da590836130e2565b6001600160a01b0380851660008181526007602052604090819020939093559151908616907f0e9905d62635f049c2f4e11678ebf9dc3d1f8c4a653e290759b772e47ba00d0090612df99086908690613b6b565b60405180910390a3826001600160a01b031660006001600160a01b0316600080516020613c9d83398151915284604051612d19919061385b565b8015610a67576001600160a01b0383166000908152601060209081526040808320858452909152902054612ea5576001600160a01b0383166000818152600f60209081526040808320805460018101825581855283852001879055938352925460108252838320868452909152919020555b6001600160a01b0383166000908152601160209081526040808320858452909152902054612ed390826130e2565b6001600160a01b0384166000908152601160209081526040808320868452825280832093909355600d90522054612f4457600c80546001810182557fdf6966c971051c3d54ec59162606531493a51404a002842f56009d7e5cf4a8c701839055546000838152600d60205260409020555b6000828152600e6020526040902054612f5d90826130e2565b6000838152600e6020526040902055505050565b60208101516000906000199080821415612f915760408401519250612f95565b8492505b505092915050565b612fa6816130bf565b612fc25760405162461bcd60e51b815260040161081490613953565b6001600160a01b038216612fe85760405162461bcd60e51b815260040161081490613b20565b6001600160a01b0383166000908152600760205260409020548111156130205760405162461bcd60e51b815260040161081490613b04565b6001600160a01b0383166000908152600760205260409020546130439082612093565b6001600160a01b03808516600090815260076020526040808220939093559084168152205461307290826130e2565b6001600160a01b038084166000818152600760205260409081902093909355915190851690600080516020613c9d833981519152906130b290859061385b565b60405180910390a3505050565b60045460009082906130db906130d583826130ee565b906130fa565b1492915050565b60006116ad8284613bc2565b60006116ad8284613bda565b60006116ad8284613bfa565b82805461311290613c30565b90600052602060002090601f016020900481019282613134576000855561317a565b82601f1061314d57805160ff191683800117855561317a565b8280016001018555821561317a579182015b8281111561317a57825182559160200191906001019061315f565b50613186929150613256565b5090565b50805461319690613c30565b6000825580601f106131a85750610c60565b601f016020900490600052602060002090810190610c609190613256565b82805482825590600052602060002090810192821561317a579160200282015b8281111561317a5782358255916020019190600101906131e6565b82805482825590600052602060002090810192821561317a579160200282015b8281111561317a57825182546001600160a01b0319166001600160a01b03909116178255602090920191600190910190613221565b5b808211156131865760008155600101613257565b80356001600160a01b0381168114610e6c57600080fd5b60008083601f840112613293578182fd5b5081356001600160401b038111156132a9578182fd5b60208301915083602080830285010111156132c357600080fd5b9250929050565b60008083601f8401126132db578182fd5b5081356001600160401b038111156132f1578182fd5b6020830191508360208285010111156132c357600080fd5b60006020828403121561331a578081fd5b6116ad8261326b565b60008060408385031215613335578081fd5b61333e8361326b565b915061334c6020840161326b565b90509250929050565b600080600060608486031215613369578081fd5b6133728461326b565b92506133806020850161326b565b9150604084013590509250925092565b6000806000806000608086880312156133a7578081fd5b6133b08661326b565b94506133be6020870161326b565b93506040860135925060608601356001600160401b038111156133df578182fd5b6133eb888289016132ca565b969995985093965092949392505050565b6000806040838503121561340e578182fd5b6134178361326b565b946020939093013593505050565b6000806000806060858703121561343a578384fd5b6134438561326b565b93506020850135925060408501356001600160401b03811115613464578283fd5b613470878288016132ca565b95989497509550505050565b6000806020838503121561348e578182fd5b82356001600160401b038111156134a3578283fd5b6134af85828601613282565b90969095509350505050565b6000602082840312156134cc578081fd5b5035919050565b600080604083850312156134e5578182fd5b8235915061334c6020840161326b565b600080600060608486031215613509578283fd5b833592506135196020850161326b565b91506135276040850161326b565b90509250925092565b60008060008060008060008060c0898b03121561354b578283fd5b8835975061355b60208a0161326b565b965061356960408a0161326b565b95506060890135945060808901356001600160401b038082111561358b578485fd5b6135978c838d016132ca565b909650945060a08b01359150808211156135af578384fd5b506135bc8b828c016132ca565b999c989b5096995094979396929594505050565b6000806000606084860312156135e4578081fd5b833592506133806020850161326b565b60008060008060006080868803121561360b578283fd5b853594506133be6020870161326b565b60008060006040848603121561362f578081fd5b8335925060208401356001600160401b0381111561364b578182fd5b61365786828701613282565b9497909650939450505050565b60008060008060608587031215613679578182fd5b8435935060208501356001600160401b03811115613695578283fd5b6136a1878288016132ca565b9598909750949560400135949350505050565b600080600080606085870312156136c9578182fd5b843593506020850135925060408501356001600160401b03811115613464578283fd5b600080600060408486031215613700578081fd5b8335925060208401356001600160401b0381111561371c578182fd5b613657868287016132ca565b60008151808452815b8181101561374d57602081850181015186830182015201613731565b8181111561375e5782602083870101525b50601f01601f19169290920160200192915050565b6001600160a01b0391909116815260200190565b600060018060a01b0386168252846020830152608060408301526137ae6080830185613728565b82810360608401526137c08185613728565b979650505050505050565b6020808252825182820181905260009190848201906040850190845b8181101561380c5783516001600160a01b0316835292840192918401916001016137e7565b50909695505050505050565b6020808252825182820181905260009190848201906040850190845b8181101561380c57835183529284019291840191600101613834565b901515815260200190565b90815260200190565b6000604082528360408301528385606084013780606085840101526060601f19601f8601168301019050826020830152949350505050565b6000602082526116ad6020830184613728565b6000604082526138c26040830185613728565b90508260208301529392505050565b6000606082526138e46060830186613728565b60208301949094525060400152919050565b6020808252601f908201527f526f6c65733a206163636f756e7420616c72656164792068617320726f6c6500604082015260600190565b6020808252600c908201526b155b985d5d1a1bdc9a5e995960a21b604082015260600190565b602080825260029082015261035360f41b604082015260600190565b60208082526026908201527f4f776e61626c653a206e6577206f776e657220697320746865207a65726f206160408201526564647265737360d01b606082015260800190565b6020808252600d908201526c092dcecc2d8d2c840d2dcc8caf609b1b604082015260600190565b6020808252600290820152611a9b60f11b604082015260600190565b60208082526002908201526106a760f31b604082015260600190565b602080825260029082015261353560f01b604082015260600190565b60208082526021908201527f526f6c65733a206163636f756e7420646f6573206e6f74206861766520726f6c6040820152606560f81b606082015260800190565b6020808252818101527f4f776e61626c653a2063616c6c6572206973206e6f7420746865206f776e6572604082015260600190565b60208082526022908201527f526f6c65733a206163636f756e7420697320746865207a65726f206164647265604082015261737360f01b606082015260800190565b602080825260029082015261353360f01b604082015260600190565b6020808252600290820152611a9960f11b604082015260600190565b602080825260029082015261353760f01b604082015260600190565b602080825260159082015274111bd8dd5b595b9d08191bd95cdb9d08195e1a5cdd605a1b604082015260600190565b600083825260406020830152610e4a6040830184613728565b600083825260606020830152613b9d6060830184613728565b828103604090930192909252815260200192915050565b60ff91909116815260200190565b60008219821115613bd557613bd5613c86565b500190565b600082613bf557634e487b7160e01b81526012600452602481fd5b500490565b6000816000190483118215151615613c1457613c14613c86565b500290565b600082821015613c2b57613c2b613c86565b500390565b600281046001821680613c4457607f821691505b60208210811415613c6557634e487b7160e01b600052602260045260246000fd5b50919050565b6000600019821415613c7f57613c7f613c86565b5060010190565b634e487b7160e01b600052601160045260246000fdfeddf252ad1be2c89b69c2b068fc378daa952ba7f163c4a11628f55a4df523b3efa26469706673582212201b422685ead97fa58e00d47a796316787e61e9bbad83350b61b578ba311b725464736f6c63430008000033",
  "immutableReferences": {},
  "source": "// SPDX-License-Identifier: Apache-2.0\n/*\n * This code has not been reviewed.\n * Do not use or deploy this code before reviewing it personally first.\n */\npragma solidity ^0.8.0;\n\nimport \"./utils/math/SafeMath.sol\";\nimport \"./access/Ownable.sol\";\nimport \"./token/ERC20/IERC20.sol\";\nimport \"./IERC1400.sol\";\nimport \"./roles/Roles.sol\";\n\n/**\n * @title ERC1400\n * @dev ERC1400 logic\n */\ncontract ERC1400 is IERC20, IERC1400, Ownable {\n  using SafeMath for uint256;\n  using Roles for Roles.Role;\n\n  Roles.Role private _minters;\n  \n  event MinterAdded(address indexed account);\n  event MinterRemoved(address indexed account);\n\n  /************************************* Token description ****************************************/\n  string internal _name;\n  string internal _symbol;\n  uint256 internal _granularity;\n  uint256 internal _totalSupply;\n  /************************************************************************************************/\n\n  /**************************************** Token behaviours **************************************/\n  // Indicate whether the token can still be controlled by operators or not anymore.\n  bool internal _isControllable;\n\n  // Indicate whether the token can still be issued by the issuer or not anymore.\n  bool internal _isIssuable;\n  /************************************************************************************************/\n\n  /********************************** ERC20 Token mappings ****************************************/\n  // Mapping from tokenHolder to balance.\n  mapping(address => uint256) internal _balances;\n\n  // Mapping from (tokenHolder, spender) to allowed value.\n  mapping (address => mapping (address => uint256)) internal _allowed;\n  /************************************************************************************************/\n\n  /**************************************** Documents *********************************************/\n  struct Doc {\n    string docURI;\n    bytes32 docHash;\n    uint256 timestamp;\n  }\n\n  // Mapping for documents.\n  mapping(bytes32 => Doc) internal _documents;\n  mapping(bytes32 => uint256) internal _indexOfDocHashes;\n  bytes32[] internal _docHashes;\n  /************************************************************************************************/\n\n  /*********************************** Partitions  mappings ***************************************/\n  // List of partitions.\n  bytes32[] internal _totalPartitions;\n\n  // Mapping from partition to their index.\n  mapping (bytes32 => uint256) internal _indexOfTotalPartitions;\n\n  // Mapping from partition to global balance of corresponding partition.\n  mapping (bytes32 => uint256) internal _totalSupplyByPartition;\n\n  // Mapping from tokenHolder to their partitions.\n  mapping (address => bytes32[]) internal _partitionsOf;\n\n  // Mapping from (tokenHolder, partition) to their index.\n  mapping (address => mapping (bytes32 => uint256)) internal _indexOfPartitionsOf;\n\n  // Mapping from (tokenHolder, partition) to balance of corresponding partition.\n  mapping (address => mapping (bytes32 => uint256)) internal _balanceOfByPartition;\n\n  // List of token default partitions (for ERC20 compatibility).\n  bytes32[] internal _defaultPartitions;\n  /************************************************************************************************/\n\n  /********************************* Global operators mappings ************************************/\n  // Mapping from (operator, tokenHolder) to authorized status. [TOKEN-HOLDER-SPECIFIC]\n  mapping(address => mapping(address => bool)) internal _authorizedOperator;\n\n  // Array of controllers. [GLOBAL - NOT TOKEN-HOLDER-SPECIFIC]\n  address[] internal _controllers;\n\n  // Mapping from operator to controller status. [GLOBAL - NOT TOKEN-HOLDER-SPECIFIC]\n  mapping(address => bool) internal _isController;\n  /************************************************************************************************/\n\n  /******************************** Partition operators mappings **********************************/\n  // Mapping from (partition, tokenHolder, spender) to allowed value. [TOKEN-HOLDER-SPECIFIC]\n  mapping(bytes32 => mapping (address => mapping (address => uint256))) internal _allowedByPartition;\n\n  // Mapping from (tokenHolder, partition, operator) to 'approved for partition' status. [TOKEN-HOLDER-SPECIFIC]\n  mapping (address => mapping (bytes32 => mapping (address => bool))) internal _authorizedOperatorByPartition;\n\n  // Mapping from partition to controllers for the partition. [NOT TOKEN-HOLDER-SPECIFIC]\n  mapping (bytes32 => address[]) internal _controllersByPartition;\n\n  // Mapping from (partition, operator) to PartitionController status. [NOT TOKEN-HOLDER-SPECIFIC]\n  mapping (bytes32 => mapping (address => bool)) internal _isControllerByPartition;\n  /************************************************************************************************/\n\n  /***************************************** Modifiers ********************************************/\n  /**\n   * @dev Modifier to verify if token is issuable.\n   */\n  modifier isIssuableToken() {\n    require(_isIssuable, \"55\"); // 0x55\tfunds locked (lockup period)\n    _;\n  }\n  /**\n   * @dev Modifier to verifiy if sender is a minter.\n   */\n  modifier onlyMinter() {\n      require(isMinter(msg.sender) || owner() == _msgSender());\n      _;\n  }\n  /************************************************************************************************/\n\n  /**************************** Events (additional - not mandatory) *******************************/\n  event ApprovalByPartition(bytes32 indexed partition, address indexed owner, address indexed spender, uint256 value);\n  /************************************************************************************************/\n\n  /**\n   * @dev Initialize ERC1400 + register the contract implementation in ERC1820Registry.\n   * @param tokenName Name of the token.\n   * @param tokenSymbol Symbol of the token.\n   * @param tokenGranularity Granularity of the token.\n   * @param initialControllers Array of initial controllers.\n   * @param defaultPartitions Partitions chosen by default, when partition is\n   * not specified, like the case ERC20 tranfers.\n   */\n  constructor(\n    string memory tokenName,\n    string memory tokenSymbol,\n    uint256 tokenGranularity,\n    address[] memory initialControllers,\n    bytes32[] memory defaultPartitions\n  ) {\n    _addMinter(msg.sender);\n    _name = tokenName;\n    _symbol = tokenSymbol;\n    _totalSupply = 0;\n    require(tokenGranularity >= 1); // Constructor Blocked - Token granularity can not be lower than 1\n    _granularity = tokenGranularity;\n    _setControllers(initialControllers);\n    _defaultPartitions = defaultPartitions;\n    _isControllable = true;\n    _isIssuable = true;\n  }\n\n  /************************************************************************************************/\n  /********************************************** Role ********************************************/\n  /************************************************************************************************/\n  function isMinter(address account) public view returns (bool) {\n      return _minters.has(account);\n  }\n\n  function addMinter(address account) public onlyMinter {\n      _addMinter(account);\n  }\n\n  function removeMinter(address account) public onlyMinter {\n      _removeMinter(account);\n  }\n\n  function renounceMinter() public {\n      _removeMinter(msg.sender);\n  }\n\n  function _addMinter(address account) internal {\n      _minters.add(account);\n      emit MinterAdded(account);\n  }\n\n  function _removeMinter(address account) internal {\n      _minters.remove(account);\n      emit MinterRemoved(account);\n  }\n\n  /************************************************************************************************/\n  /****************************** EXTERNAL FUNCTIONS (ERC20 INTERFACE) ****************************/\n  /************************************************************************************************/\n\n  /**\n   * @dev Get the total number of issued tokens.\n   * @return Total supply of tokens currently in circulation.\n   */\n  function totalSupply() external override view returns (uint256) {\n    return _totalSupply;\n  }\n  /**\n   * @dev Get the balance of the account with address 'tokenHolder'.\n   * @param tokenHolder Address for which the balance is returned.\n   * @return Amount of token held by 'tokenHolder' in the token contract.\n   */\n  function balanceOf(address tokenHolder) external override view returns (uint256) {\n    return _balances[tokenHolder];\n  }\n  /**\n   * @dev Transfer token for a specified address.\n   * @param to The address to transfer to.\n   * @param value The value to be transferred.\n   * @return A boolean that indicates if the operation was successful.\n   */\n  function transfer(address to, uint256 value) external override returns (bool) {\n    _transferByDefaultPartitions(msg.sender, msg.sender, to, value, \"\");\n    return true;\n  }\n  /**\n   * @dev Check the value of tokens that an owner allowed to a spender.\n   * @param owner address The address which owns the funds.\n   * @param spender address The address which will spend the funds.\n   * @return A uint256 specifying the value of tokens still available for the spender.\n   */\n  function allowance(address owner, address spender) external override view returns (uint256) {\n    return _allowed[owner][spender];\n  }\n  /**\n   * @dev Approve the passed address to spend the specified amount of tokens on behalf of 'msg.sender'.\n   * @param spender The address which will spend the funds.\n   * @param value The amount of tokens to be spent.\n   * @return A boolean that indicates if the operation was successful.\n   */\n  function approve(address spender, uint256 value) external override returns (bool) {\n    require(spender != address(0), \"56\"); // 0x56\tinvalid sender\n    _allowed[msg.sender][spender] = value;\n    emit Approval(msg.sender, spender, value);\n    return true;\n  }\n  /**\n   * @dev Transfer tokens from one address to another.\n   * @param from The address which you want to transfer tokens from.\n   * @param to The address which you want to transfer to.\n   * @param value The amount of tokens to be transferred.\n   * @return A boolean that indicates if the operation was successful.\n   */\n  function transferFrom(address from, address to, uint256 value) external override returns (bool) {\n    require( _isOperator(msg.sender, from)\n      || (value <= _allowed[from][msg.sender]), \"53\"); // 0x53\tinsufficient allowance\n\n    if(_allowed[from][msg.sender] >= value) {\n      _allowed[from][msg.sender] = _allowed[from][msg.sender].sub(value);\n    } else {\n      _allowed[from][msg.sender] = 0;\n    }\n\n    _transferByDefaultPartitions(msg.sender, from, to, value, \"\");\n    return true;\n  }\n\n  /************************************************************************************************/\n  /****************************** EXTERNAL FUNCTIONS (ERC1400 INTERFACE) **************************/\n  /************************************************************************************************/\n\n  /************************************* Document Management **************************************/\n  /**\n   * @dev Access a document associated with the token.\n   * @param documentName Short name (represented as a bytes32) associated to the document.\n   * @return Requested document + document hash + document timestamp.\n   */\n  function getDocument(bytes32 documentName) external override view returns (string memory, bytes32, uint256) {\n    require(bytes(_documents[documentName].docURI).length != 0); // Action Blocked - Empty document\n    return (\n      _documents[documentName].docURI,\n      _documents[documentName].docHash,\n      _documents[documentName].timestamp\n    );\n  }\n  /**\n   * @dev Associate a document with the token.\n   * @param documentName Short name (represented as a bytes32) associated to the document.\n   * @param uri Document content.\n   * @param documentHash Hash of the document [optional parameter].\n   */\n  function setDocument(bytes32 documentName, string calldata uri, bytes32 documentHash) external override {\n    require(_isController[msg.sender]);\n    _documents[documentName] = Doc({\n      docURI: uri,\n      docHash: documentHash,\n      timestamp: block.timestamp\n    });\n\n    if (_indexOfDocHashes[documentHash] == 0) {\n      _docHashes.push(documentHash);\n      _indexOfDocHashes[documentHash] = _docHashes.length;\n    }\n\n    emit DocumentUpdated(documentName, uri, documentHash);\n  }\n\n  function removeDocument(bytes32 documentName) external override {\n    require(_isController[msg.sender], \"Unauthorized\");\n    require(bytes(_documents[documentName].docURI).length != 0, \"Document doesnt exist\"); // Action Blocked - Empty document\n\n    Doc memory data = _documents[documentName];\n\n    uint256 index1 = _indexOfDocHashes[data.docHash];\n    require(index1 > 0, \"Invalid index\"); //Indexing starts at 1, 0 is not allowed\n\n    // move the last item into the index being vacated\n    bytes32 lastValue = _docHashes[_docHashes.length - 1];\n    _docHashes[index1 - 1] = lastValue; // adjust for 1-based indexing\n    _indexOfDocHashes[lastValue] = index1;\n    _docHashes.pop();\n    _indexOfDocHashes[data.docHash] = 0;\n\n    delete _documents[documentName];\n\n    emit DocumentRemoved(documentName, data.docURI, data.docHash);\n  }\n\n  function getAllDocuments() external override view returns (bytes32[] memory) {\n    return _docHashes;\n  }\n  /************************************************************************************************/\n\n  /************************************** Token Information ***************************************/\n  /**\n   * @dev Get balance of a tokenholder for a specific partition.\n   * @param partition Name of the partition.\n   * @param tokenHolder Address for which the balance is returned.\n   * @return Amount of token of partition 'partition' held by 'tokenHolder' in the token contract.\n   */\n  function balanceOfByPartition(bytes32 partition, address tokenHolder) external override view returns (uint256) {\n    return _balanceOfByPartition[tokenHolder][partition];\n  }\n  /**\n   * @dev Get partitions index of a tokenholder.\n   * @param tokenHolder Address for which the partitions index are returned.\n   * @return Array of partitions index of 'tokenHolder'.\n   */\n  function partitionsOf(address tokenHolder) external override view returns (bytes32[] memory) {\n    return _partitionsOf[tokenHolder];\n  }\n  /************************************************************************************************/\n\n  /****************************************** Transfers *******************************************/\n  /**\n   * @dev Transfer the amount of tokens from the address 'msg.sender' to the address 'to'.\n   * @param to Token recipient.\n   * @param value Number of tokens to transfer.\n   * @param data Information attached to the transfer, by the token holder.\n   */\n  function transferWithData(address to, uint256 value, bytes calldata data) external override {\n    _transferByDefaultPartitions(msg.sender, msg.sender, to, value, data);\n  }\n  /**\n   * @dev Transfer the amount of tokens on behalf of the address 'from' to the address 'to'.\n   * @param from Token holder (or 'address(0)' to set from to 'msg.sender').\n   * @param to Token recipient.\n   * @param value Number of tokens to transfer.\n   * @param data Information attached to the transfer, and intended for the token holder ('from').\n   */\n  function transferFromWithData(address from, address to, uint256 value, bytes calldata data) external override virtual {\n    require( _isOperator(msg.sender, from)\n      || (value <= _allowed[from][msg.sender]), \"53\"); // 0x53\tinsufficient allowance\n\n    if(_allowed[from][msg.sender] >= value) {\n      _allowed[from][msg.sender] = _allowed[from][msg.sender].sub(value);\n    } else {\n      _allowed[from][msg.sender] = 0;\n    }\n\n    _transferByDefaultPartitions(msg.sender, from, to, value, data);\n  }\n  /************************************************************************************************/\n\n  /********************************** Partition Token Transfers ***********************************/\n  /**\n   * @dev Transfer tokens from a specific partition.\n   * @param partition Name of the partition.\n   * @param to Token recipient.\n   * @param value Number of tokens to transfer.\n   * @param data Information attached to the transfer, by the token holder.\n   * @return Destination partition.\n   */\n  function transferByPartition(\n    bytes32 partition,\n    address to,\n    uint256 value,\n    bytes calldata data\n  )\n    external\n    override\n    returns (bytes32)\n  {\n    return _transferByPartition(partition, msg.sender, msg.sender, to, value, data, \"\");\n  }\n\n  /**\n   * @dev Transfer tokens from a specific partition through an operator.\n   * @param partition Name of the partition.\n   * @param from Token holder.\n   * @param to Token recipient.\n   * @param value Number of tokens to transfer.\n   * @param data Information attached to the transfer. [CAN CONTAIN THE DESTINATION PARTITION]\n   * @param operatorData Information attached to the transfer, by the operator.\n   * @return Destination partition.\n   */\n  function operatorTransferByPartition(\n    bytes32 partition,\n    address from,\n    address to,\n    uint256 value,\n    bytes calldata data,\n    bytes calldata operatorData\n  )\n    external\n    override\n    returns (bytes32)\n  {\n    //We want to check if the msg.sender is an authorized operator for `from`\n    //(msg.sender == from OR msg.sender is authorized by from OR msg.sender is a controller if this token is controlable)\n    //OR\n    //We want to check if msg.sender is an `allowed` operator/spender for `from`\n    require(_isOperatorForPartition(partition, msg.sender, from)\n      || (value <= _allowedByPartition[partition][from][msg.sender]), \"53\"); // 0x53\tinsufficient allowance\n\n    if(_allowedByPartition[partition][from][msg.sender] >= value) {\n      _allowedByPartition[partition][from][msg.sender] = _allowedByPartition[partition][from][msg.sender].sub(value);\n    } else {\n      _allowedByPartition[partition][from][msg.sender] = 0;\n    }\n\n    return _transferByPartition(partition, msg.sender, from, to, value, data, operatorData);\n  }\n  /************************************************************************************************/\n\n  /************************************* Controller Operation *************************************/\n  /**\n   * @dev Know if the token can be controlled by operators.\n   * If a token returns 'false' for 'isControllable()'' then it MUST always return 'false' in the future.\n   * @return bool 'true' if the token can still be controlled by operators, 'false' if it can't anymore.\n   */\n  function isControllable() external override view returns (bool) {\n    return _isControllable;\n  }\n  /************************************************************************************************/\n\n  /************************************* Operator Management **************************************/\n  /**\n   * @dev Set a third party operator address as an operator of 'msg.sender' to transfer\n   * and redeem tokens on its behalf.\n   * @param operator Address to set as an operator for 'msg.sender'.\n   */\n  function authorizeOperator(address operator) external override {\n    require(operator != msg.sender);\n    _authorizedOperator[operator][msg.sender] = true;\n    emit AuthorizedOperator(operator, msg.sender);\n  }\n  /**\n   * @dev Remove the right of the operator address to be an operator for 'msg.sender'\n   * and to transfer and redeem tokens on its behalf.\n   * @param operator Address to rescind as an operator for 'msg.sender'.\n   */\n  function revokeOperator(address operator) external override {\n    require(operator != msg.sender);\n    _authorizedOperator[operator][msg.sender] = false;\n    emit RevokedOperator(operator, msg.sender);\n  }\n  /**\n   * @dev Set 'operator' as an operator for 'msg.sender' for a given partition.\n   * @param partition Name of the partition.\n   * @param operator Address to set as an operator for 'msg.sender'.\n   */\n  function authorizeOperatorByPartition(bytes32 partition, address operator) external override {\n    _authorizedOperatorByPartition[msg.sender][partition][operator] = true;\n    emit AuthorizedOperatorByPartition(partition, operator, msg.sender);\n  }\n  /**\n   * @dev Remove the right of the operator address to be an operator on a given\n   * partition for 'msg.sender' and to transfer and redeem tokens on its behalf.\n   * @param partition Name of the partition.\n   * @param operator Address to rescind as an operator on given partition for 'msg.sender'.\n   */\n  function revokeOperatorByPartition(bytes32 partition, address operator) external override {\n    _authorizedOperatorByPartition[msg.sender][partition][operator] = false;\n    emit RevokedOperatorByPartition(partition, operator, msg.sender);\n  }\n  /************************************************************************************************/\n\n  /************************************* Operator Information *************************************/\n  /**\n   * @dev Indicate whether the operator address is an operator of the tokenHolder address.\n   * @param operator Address which may be an operator of tokenHolder.\n   * @param tokenHolder Address of a token holder which may have the operator address as an operator.\n   * @return 'true' if operator is an operator of 'tokenHolder' and 'false' otherwise.\n   */\n  function isOperator(address operator, address tokenHolder) external override view returns (bool) {\n    return _isOperator(operator, tokenHolder);\n  }\n  /**\n   * @dev Indicate whether the operator address is an operator of the tokenHolder\n   * address for the given partition.\n   * @param partition Name of the partition.\n   * @param operator Address which may be an operator of tokenHolder for the given partition.\n   * @param tokenHolder Address of a token holder which may have the operator address as an operator for the given partition.\n   * @return 'true' if 'operator' is an operator of 'tokenHolder' for partition 'partition' and 'false' otherwise.\n   */\n  function isOperatorForPartition(bytes32 partition, address operator, address tokenHolder) external override view returns (bool) {\n    return _isOperatorForPartition(partition, operator, tokenHolder);\n  }\n  /************************************************************************************************/\n\n  /**************************************** Token Issuance ****************************************/\n  /**\n   * @dev Know if new tokens can be issued in the future.\n   * @return bool 'true' if tokens can still be issued by the issuer, 'false' if they can't anymore.\n   */\n  function isIssuable() external override view returns (bool) {\n    return _isIssuable;\n  }\n  /**\n   * @dev Issue tokens from default partition.\n   * @param tokenHolder Address for which we want to issue tokens.\n   * @param value Number of tokens issued.\n   * @param data Information attached to the issuance, by the issuer.\n   */\n  function issue(address tokenHolder, uint256 value, bytes calldata data)\n    external\n    override\n    onlyMinter\n    isIssuableToken\n  {\n    require(_defaultPartitions.length != 0, \"55\"); // 0x55\tfunds locked (lockup period)\n\n    _issueByPartition(_defaultPartitions[0], msg.sender, tokenHolder, value, data);\n  }\n  /**\n   * @dev Issue tokens from a specific partition.\n   * @param partition Name of the partition.\n   * @param tokenHolder Address for which we want to issue tokens.\n   * @param value Number of tokens issued.\n   * @param data Information attached to the issuance, by the issuer.\n   */\n  function issueByPartition(bytes32 partition, address tokenHolder, uint256 value, bytes calldata data)\n    external\n    override\n    onlyMinter\n    isIssuableToken\n  {\n    _issueByPartition(partition, msg.sender, tokenHolder, value, data);\n  }\n  /************************************************************************************************/\n  \n  /*************************************** Token Redemption ***************************************/\n  /**\n   * @dev Redeem the amount of tokens from the address 'msg.sender'.\n   * @param value Number of tokens to redeem.\n   * @param data Information attached to the redemption, by the token holder.\n   */\n  function redeem(uint256 value, bytes calldata data)\n    external\n    override\n  {\n    _redeemByDefaultPartitions(msg.sender, msg.sender, value, data);\n  }\n  /**\n   * @dev Redeem the amount of tokens on behalf of the address from.\n   * @param from Token holder whose tokens will be redeemed (or address(0) to set from to msg.sender).\n   * @param value Number of tokens to redeem.\n   * @param data Information attached to the redemption.\n   */\n  function redeemFrom(address from, uint256 value, bytes calldata data)\n    external\n    override\n    virtual\n  {\n    require(_isOperator(msg.sender, from)\n      || (value <= _allowed[from][msg.sender]), \"53\"); // 0x53\tinsufficient allowance\n\n    if(_allowed[from][msg.sender] >= value) {\n      _allowed[from][msg.sender] = _allowed[from][msg.sender].sub(value);\n    } else {\n      _allowed[from][msg.sender] = 0;\n    }\n\n    _redeemByDefaultPartitions(msg.sender, from, value, data);\n  }\n  /**\n   * @dev Redeem tokens of a specific partition.\n   * @param partition Name of the partition.\n   * @param value Number of tokens redeemed.\n   * @param data Information attached to the redemption, by the redeemer.\n   */\n  function redeemByPartition(bytes32 partition, uint256 value, bytes calldata data)\n    external\n    override\n  {\n    _redeemByPartition(partition, msg.sender, msg.sender, value, data, \"\");\n  }\n  /**\n   * @dev Redeem tokens of a specific partition.\n   * @param partition Name of the partition.\n   * @param tokenHolder Address for which we want to redeem tokens.\n   * @param value Number of tokens redeemed\n   * @param operatorData Information attached to the redemption, by the operator.\n   */\n  function operatorRedeemByPartition(bytes32 partition, address tokenHolder, uint256 value, bytes calldata operatorData)\n    external\n    override\n  {\n    require(_isOperatorForPartition(partition, msg.sender, tokenHolder) || value <= _allowedByPartition[partition][tokenHolder][msg.sender], \"58\"); // 0x58\tinvalid operator (transfer agent)\n\n    if(_allowedByPartition[partition][tokenHolder][msg.sender] >= value) {\n      _allowedByPartition[partition][tokenHolder][msg.sender] = _allowedByPartition[partition][tokenHolder][msg.sender].sub(value);\n    } else {\n      _allowedByPartition[partition][tokenHolder][msg.sender] = 0;\n    }\n\n    _redeemByPartition(partition, msg.sender, tokenHolder, value, \"\", operatorData);\n  }\n  /************************************************************************************************/\n\n  /************************************************************************************************/\n  /************************ EXTERNAL FUNCTIONS (ADDITIONAL - NOT MANDATORY) ***********************/\n  /************************************************************************************************/\n\n  /************************************ Token description *****************************************/\n  /**\n   * @dev Get the name of the token, e.g., \"MyToken\".\n   * @return Name of the token.\n   */\n  function name() external view returns(string memory) {\n    return _name;\n  }\n  /**\n   * @dev Get the symbol of the token, e.g., \"MYT\".\n   * @return Symbol of the token.\n   */\n  function symbol() external view returns(string memory) {\n    return _symbol;\n  }\n  /**\n   * @dev Get the number of decimals of the token.\n   * @return The number of decimals of the token. For retrocompatibility, decimals are forced to 18 in ERC1400.\n   */\n  function decimals() external pure returns(uint8) {\n    return uint8(18);\n  }\n  /**\n   * @dev Get the smallest part of the token thats not divisible.\n   * @return The smallest non-divisible part of the token.\n   */\n  function granularity() external view returns(uint256) {\n    return _granularity;\n  }\n  /**\n   * @dev Get list of existing partitions.\n   * @return Array of all exisiting partitions.\n   */\n  function totalPartitions() external view returns (bytes32[] memory) {\n    return _totalPartitions;\n  }\n  /**\n   * @dev Get the total number of issued tokens for a given partition.\n   * @param partition Name of the partition.\n   * @return Total supply of tokens currently in circulation, for a given partition.\n   */\n  function totalSupplyByPartition(bytes32 partition) external view returns (uint256) {\n    return _totalSupplyByPartition[partition];\n  }\n  /************************************************************************************************/\n\n  /**************************************** Token behaviours **************************************/\n  /**\n   * @dev Definitely renounce the possibility to control tokens on behalf of tokenHolders.\n   * Once set to false, '_isControllable' can never be set to 'true' again.\n   */\n  function renounceControl() external onlyOwner {\n    _isControllable = false;\n  }\n  /**\n   * @dev Definitely renounce the possibility to issue new tokens.\n   * Once set to false, '_isIssuable' can never be set to 'true' again.\n   */\n  function renounceIssuance() external onlyOwner {\n    _isIssuable = false;\n  }\n  /************************************************************************************************/\n\n  /************************************ Token controllers *****************************************/\n  /**\n   * @dev Get the list of controllers as defined by the token contract.\n   * @return List of addresses of all the controllers.\n   */\n  function controllers() external view returns (address[] memory) {\n    return _controllers;\n  }\n  /**\n   * @dev Get controllers for a given partition.\n   * @param partition Name of the partition.\n   * @return Array of controllers for partition.\n   */\n  function controllersByPartition(bytes32 partition) external view returns (address[] memory) {\n    return _controllersByPartition[partition];\n  }\n  /**\n   * @dev Set list of token controllers.\n   * @param operators Controller addresses.\n   */\n  function setControllers(address[] calldata operators) external onlyOwner {\n    _setControllers(operators);\n  }\n  /**\n   * @dev Set list of token partition controllers.\n   * @param partition Name of the partition.\n   * @param operators Controller addresses.\n   */\n   function setPartitionControllers(bytes32 partition, address[] calldata operators) external onlyOwner {\n     _setPartitionControllers(partition, operators);\n   }\n  /************************************************************************************************/\n\n  /********************************* Token default partitions *************************************/\n  /**\n   * @dev Get default partitions to transfer from.\n   * Function used for ERC20 retrocompatibility.\n   * For example, a security token may return the bytes32(\"unrestricted\").\n   * @return Array of default partitions.\n   */\n  function getDefaultPartitions() external view returns (bytes32[] memory) {\n    return _defaultPartitions;\n  }\n  /**\n   * @dev Set default partitions to transfer from.\n   * Function used for ERC20 retrocompatibility.\n   * @param partitions partitions to use by default when not specified.\n   */\n  function setDefaultPartitions(bytes32[] calldata partitions) external onlyOwner {\n    _defaultPartitions = partitions;\n  }\n  /************************************************************************************************/\n\n  /******************************** Partition Token Allowances ************************************/\n  /**\n   * @dev Check the value of tokens that an owner allowed to a spender.\n   * @param partition Name of the partition.\n   * @param owner address The address which owns the funds.\n   * @param spender address The address which will spend the funds.\n   * @return A uint256 specifying the value of tokens still available for the spender.\n   */\n  function allowanceByPartition(bytes32 partition, address owner, address spender) external override view returns (uint256) {\n    return _allowedByPartition[partition][owner][spender];\n  }\n  /**\n   * @dev Approve the passed address to spend the specified amount of tokens on behalf of 'msg.sender'.\n   * @param partition Name of the partition.\n   * @param spender The address which will spend the funds.\n   * @param value The amount of tokens to be spent.\n   * @return A boolean that indicates if the operation was successful.\n   */\n  function approveByPartition(bytes32 partition, address spender, uint256 value) external returns (bool) {\n    require(spender != address(0), \"56\"); // 0x56\tinvalid sender\n    _allowedByPartition[partition][msg.sender][spender] = value;\n    emit ApprovalByPartition(partition, msg.sender, spender, value);\n    return true;\n  }\n  /************************************************************************************************/\n\n  /**************************************** Token Transfers ***************************************/\n  /**\n   * @dev Perform the transfer of tokens.\n   * @param from Token holder.\n   * @param to Token recipient.\n   * @param value Number of tokens to transfer.\n   */\n  function _transferWithData(\n    address from,\n    address to,\n    uint256 value\n  )\n    internal\n  {\n    require(_isMultiple(value), \"50\"); // 0x50\ttransfer failure\n    require(to != address(0), \"57\"); // 0x57\tinvalid receiver\n    require(_balances[from] >= value, \"52\"); // 0x52\tinsufficient balance\n  \n    _balances[from] = _balances[from].sub(value);\n    _balances[to] = _balances[to].add(value);\n\n    emit Transfer(from, to, value); // ERC20 retrocompatibility \n  }\n  /**\n   * @dev Transfer tokens from a specific partition.\n   * @param fromPartition Partition of the tokens to transfer.\n   * @param operator The address performing the transfer.\n   * @param from Token holder.\n   * @param to Token recipient.\n   * @param value Number of tokens to transfer.\n   * @param data Information attached to the transfer. [CAN CONTAIN THE DESTINATION PARTITION]\n   * @param operatorData Information attached to the transfer, by the operator (if any).\n   * @return Destination partition.\n   */\n  function _transferByPartition(\n    bytes32 fromPartition,\n    address operator,\n    address from,\n    address to,\n    uint256 value,\n    bytes memory data,\n    bytes memory operatorData\n  )\n    internal\n    returns (bytes32)\n  {\n    require(_balanceOfByPartition[from][fromPartition] >= value, \"52\"); // 0x52\tinsufficient balance\n\n    bytes32 toPartition = fromPartition;\n\n    if(operatorData.length != 0 && data.length >= 64) {\n      toPartition = _getDestinationPartition(fromPartition, data);\n    }\n\n    _removeTokenFromPartition(from, fromPartition, value);\n    _transferWithData(from, to, value);\n    _addTokenToPartition(to, toPartition, value);\n\n    emit TransferByPartition(fromPartition, operator, from, to, value, data, operatorData);\n\n    if(toPartition != fromPartition) {\n      emit ChangedPartition(fromPartition, toPartition, value);\n    }\n\n    return toPartition;\n  }\n  /**\n   * @dev Transfer tokens from default partitions.\n   * Function used for ERC20 retrocompatibility.\n   * @param operator The address performing the transfer.\n   * @param from Token holder.\n   * @param to Token recipient.\n   * @param value Number of tokens to transfer.\n   * @param data Information attached to the transfer, and intended for the token holder ('from') [CAN CONTAIN THE DESTINATION PARTITION].\n   */\n  function _transferByDefaultPartitions(\n    address operator,\n    address from,\n    address to,\n    uint256 value,\n    bytes memory data\n  )\n    internal\n  {\n    require(_defaultPartitions.length != 0, \"55\"); // // 0x55\tfunds locked (lockup period)\n\n    uint256 _remainingValue = value;\n    uint256 _localBalance;\n\n    for (uint i = 0; i < _defaultPartitions.length; i++) {\n      _localBalance = _balanceOfByPartition[from][_defaultPartitions[i]];\n      if(_remainingValue <= _localBalance) {\n        _transferByPartition(_defaultPartitions[i], operator, from, to, _remainingValue, data, \"\");\n        _remainingValue = 0;\n        break;\n      } else if (_localBalance != 0) {\n        _transferByPartition(_defaultPartitions[i], operator, from, to, _localBalance, data, \"\");\n        _remainingValue = _remainingValue - _localBalance;\n      }\n    }\n\n    require(_remainingValue == 0, \"52\"); // 0x52\tinsufficient balance\n  }\n  /**\n   * @dev Retrieve the destination partition from the 'data' field.\n   * By convention, a partition change is requested ONLY when 'data' starts\n   * with the flag: 0xffffffffffffffffffffffffffffffffffffffffffffffffffffffffffffffff\n   * When the flag is detected, the destination tranche is extracted from the\n   * 32 bytes following the flag.\n   * @param fromPartition Partition of the tokens to transfer.\n   * @param data Information attached to the transfer. [CAN CONTAIN THE DESTINATION PARTITION]\n   * @return toPartition Destination partition.\n   */\n  function _getDestinationPartition(bytes32 fromPartition, bytes memory data) internal pure returns(bytes32 toPartition) {\n    bytes32 changePartitionFlag = 0xffffffffffffffffffffffffffffffffffffffffffffffffffffffffffffffff;\n    bytes32 flag;\n    assembly {\n      flag := mload(add(data, 32))\n    }\n    if(flag == changePartitionFlag) {\n      assembly {\n        toPartition := mload(add(data, 64))\n      }\n    } else {\n      toPartition = fromPartition;\n    }\n  }\n  /**\n   * @dev Remove a token from a specific partition.\n   * @param from Token holder.\n   * @param partition Name of the partition.\n   * @param value Number of tokens to transfer.\n   */\n  function _removeTokenFromPartition(address from, bytes32 partition, uint256 value) internal {\n    _balanceOfByPartition[from][partition] = _balanceOfByPartition[from][partition].sub(value);\n    _totalSupplyByPartition[partition] = _totalSupplyByPartition[partition].sub(value);\n\n    // If the total supply is zero, finds and deletes the partition.\n    if(_totalSupplyByPartition[partition] == 0) {\n      uint256 index1 = _indexOfTotalPartitions[partition];\n      require(index1 > 0, \"50\"); // 0x50\ttransfer failure\n\n      // move the last item into the index being vacated\n      bytes32 lastValue = _totalPartitions[_totalPartitions.length - 1];\n      _totalPartitions[index1 - 1] = lastValue; // adjust for 1-based indexing\n      _indexOfTotalPartitions[lastValue] = index1;\n      _totalPartitions.pop();\n      _indexOfTotalPartitions[partition] = 0;\n    }\n\n    // If the balance of the TokenHolder's partition is zero, finds and deletes the partition.\n    if(_balanceOfByPartition[from][partition] == 0) {\n      uint256 index2 = _indexOfPartitionsOf[from][partition];\n      require(index2 > 0, \"50\"); // 0x50\ttransfer failure\n\n      // move the last item into the index being vacated\n      bytes32 lastValue = _partitionsOf[from][_partitionsOf[from].length - 1];\n      _partitionsOf[from][index2 - 1] = lastValue;  // adjust for 1-based indexing\n      _indexOfPartitionsOf[from][lastValue] = index2;\n\n      //_partitionsOf[from].length -= 1;\n      _partitionsOf[from].pop();\n      _indexOfPartitionsOf[from][partition] = 0;\n    }\n  }\n  /**\n   * @dev Add a token to a specific partition.\n   * @param to Token recipient.\n   * @param partition Name of the partition.\n   * @param value Number of tokens to transfer.\n   */\n  function _addTokenToPartition(address to, bytes32 partition, uint256 value) internal {\n    if(value != 0) {\n      if (_indexOfPartitionsOf[to][partition] == 0) {\n        _partitionsOf[to].push(partition);\n        _indexOfPartitionsOf[to][partition] = _partitionsOf[to].length;\n      }\n      _balanceOfByPartition[to][partition] = _balanceOfByPartition[to][partition].add(value);\n\n      if (_indexOfTotalPartitions[partition] == 0) {\n        _totalPartitions.push(partition);\n        _indexOfTotalPartitions[partition] = _totalPartitions.length;\n      }\n      _totalSupplyByPartition[partition] = _totalSupplyByPartition[partition].add(value);\n    }\n  }\n  /**\n   * @dev Check if 'value' is multiple of the granularity.\n   * @param value The quantity that want's to be checked.\n   * @return 'true' if 'value' is a multiple of the granularity.\n   */\n  function _isMultiple(uint256 value) internal view returns(bool) {\n    return(value.div(_granularity).mul(_granularity) == value);\n  }\n  /************************************************************************************************/\n\n  /************************************* Operator Information *************************************/\n  /**\n   * @dev Indicate whether the operator address is an operator of the tokenHolder address.\n   * @param operator Address which may be an operator of 'tokenHolder'.\n   * @param tokenHolder Address of a token holder which may have the 'operator' address as an operator.\n   * @return 'true' if 'operator' is an operator of 'tokenHolder' and 'false' otherwise.\n   */\n  function _isOperator(address operator, address tokenHolder) internal view returns (bool) {\n    return (operator == tokenHolder\n      || _authorizedOperator[operator][tokenHolder]\n      || (_isControllable && _isController[operator])\n    );\n  }\n  /**\n   * @dev Indicate whether the operator address is an operator of the tokenHolder\n   * address for the given partition.\n   * @param partition Name of the partition.\n   * @param operator Address which may be an operator of tokenHolder for the given partition.\n   * @param tokenHolder Address of a token holder which may have the operator address as an operator for the given partition.\n   * @return 'true' if 'operator' is an operator of 'tokenHolder' for partition 'partition' and 'false' otherwise.\n   */\n   function _isOperatorForPartition(bytes32 partition, address operator, address tokenHolder) internal view returns (bool) {\n     return (_isOperator(operator, tokenHolder)\n       || _authorizedOperatorByPartition[tokenHolder][partition][operator]\n       || (_isControllable && _isControllerByPartition[partition][operator])\n     );\n   }\n  /************************************************************************************************/\n\n  /**************************************** Token Issuance ****************************************/\n  /**\n   * @dev Perform the issuance of tokens.\n   * @param operator Address which triggered the issuance.\n   * @param to Token recipient.\n   * @param value Number of tokens issued.\n   * @param data Information attached to the issuance, and intended for the recipient (to).\n   */\n  function _issue(address operator, address to, uint256 value, bytes memory data)\n    internal\n  {\n    require(_isMultiple(value), \"50\"); // 0x50\ttransfer failure\n    require(to != address(0), \"57\"); // 0x57\tinvalid receiver\n\n    _totalSupply = _totalSupply.add(value);\n    _balances[to] = _balances[to].add(value);\n\n    emit Issued(operator, to, value, data);\n    emit Transfer(address(0), to, value); // ERC20 retrocompatibility\n  }\n  /**\n   * @dev Issue tokens from a specific partition.\n   * @param toPartition Name of the partition.\n   * @param operator The address performing the issuance.\n   * @param to Token recipient.\n   * @param value Number of tokens to issue.\n   * @param data Information attached to the issuance.\n   */\n  function _issueByPartition(\n    bytes32 toPartition,\n    address operator,\n    address to,\n    uint256 value,\n    bytes memory data\n  )\n    internal\n  {\n    _issue(operator, to, value, data);\n    _addTokenToPartition(to, toPartition, value);\n\n    emit IssuedByPartition(toPartition, operator, to, value, data, \"\");\n  }\n  /************************************************************************************************/\n\n  /*************************************** Token Redemption ***************************************/\n  /**\n   * @dev Perform the token redemption.\n   * @param operator The address performing the redemption.\n   * @param from Token holder whose tokens will be redeemed.\n   * @param value Number of tokens to redeem.\n   * @param data Information attached to the redemption.\n   */\n  function _redeem(address operator, address from, uint256 value, bytes memory data)\n    internal\n  {\n    require(_isMultiple(value), \"50\"); // 0x50\ttransfer failure\n    require(from != address(0), \"56\"); // 0x56\tinvalid sender\n    require(_balances[from] >= value, \"52\"); // 0x52\tinsufficient balance\n\n    _balances[from] = _balances[from].sub(value);\n    _totalSupply = _totalSupply.sub(value);\n\n    emit Redeemed(operator, from, value, data);\n    emit Transfer(from, address(0), value);  // ERC20 retrocompatibility\n  }\n  /**\n   * @dev Redeem tokens of a specific partition.\n   * @param fromPartition Name of the partition.\n   * @param operator The address performing the redemption.\n   * @param from Token holder whose tokens will be redeemed.\n   * @param value Number of tokens to redeem.\n   * @param data Information attached to the redemption.\n   * @param operatorData Information attached to the redemption, by the operator (if any).\n   */\n  function _redeemByPartition(\n    bytes32 fromPartition,\n    address operator,\n    address from,\n    uint256 value,\n    bytes memory data,\n    bytes memory operatorData\n  )\n    internal\n  {\n    require(_balanceOfByPartition[from][fromPartition] >= value, \"52\"); // 0x52\tinsufficient balance\n\n    _removeTokenFromPartition(from, fromPartition, value);\n    _redeem(operator, from, value, data);\n\n    emit RedeemedByPartition(fromPartition, operator, from, value, operatorData);\n  }\n  /**\n   * @dev Redeem tokens from a default partitions.\n   * @param operator The address performing the redeem.\n   * @param from Token holder.\n   * @param value Number of tokens to redeem.\n   * @param data Information attached to the redemption.\n   */\n  function _redeemByDefaultPartitions(\n    address operator,\n    address from,\n    uint256 value,\n    bytes memory data\n  )\n    internal\n  {\n    require(_defaultPartitions.length != 0, \"55\"); // 0x55\tfunds locked (lockup period)\n\n    uint256 _remainingValue = value;\n    uint256 _localBalance;\n\n    for (uint i = 0; i < _defaultPartitions.length; i++) {\n      _localBalance = _balanceOfByPartition[from][_defaultPartitions[i]];\n      if(_remainingValue <= _localBalance) {\n        _redeemByPartition(_defaultPartitions[i], operator, from, _remainingValue, data, \"\");\n        _remainingValue = 0;\n        break;\n      } else {\n        _redeemByPartition(_defaultPartitions[i], operator, from, _localBalance, data, \"\");\n        _remainingValue = _remainingValue - _localBalance;\n      }\n    }\n\n    require(_remainingValue == 0, \"52\"); // 0x52\tinsufficient balance\n  }\n  /************************************************************************************************/\n\n  /************************************************************************************************/\n  /************************ INTERNAL FUNCTIONS (ADDITIONAL - NOT MANDATORY) ***********************/\n  /************************************************************************************************/\n\n  /************************************ Token controllers *****************************************/\n  /**\n   * @dev Set list of token controllers.\n   * @param operators Controller addresses.\n   */\n  function _setControllers(address[] memory operators) internal {\n    for (uint i = 0; i<_controllers.length; i++){\n      _isController[_controllers[i]] = false;\n    }\n    for (uint j = 0; j<operators.length; j++){\n      _isController[operators[j]] = true;\n    }\n    _controllers = operators;\n  }\n  /**\n   * @dev Set list of token partition controllers.\n   * @param partition Name of the partition.\n   * @param operators Controller addresses.\n   */\n   function _setPartitionControllers(bytes32 partition, address[] memory operators) internal {\n     for (uint i = 0; i<_controllersByPartition[partition].length; i++){\n       _isControllerByPartition[partition][_controllersByPartition[partition][i]] = false;\n     }\n     for (uint j = 0; j<operators.length; j++){\n       _isControllerByPartition[partition][operators[j]] = true;\n     }\n     _controllersByPartition[partition] = operators;\n   }\n  /************************************************************************************************/\n}\n",
  "sourcePath": "/Users/youngdo/workspace/UniversalToken/contracts/ERC1400.sol",
  "compiler": {
    "name": "solc",
    "version": "0.8.0+commit.c7dfd78e.Emscripten.clang"
  },
  "schemaVersion": "3.4.3",
  "updatedAt": "2024-04-02T05:52:54.464Z",
  "networkType": "ethereum",
  "devdoc": {
    "details": "ERC1400 logic",
    "kind": "dev",
    "methods": {
      "allowance(address,address)": {
        "details": "Check the value of tokens that an owner allowed to a spender.",
        "params": {
          "owner": "address The address which owns the funds.",
          "spender": "address The address which will spend the funds."
        },
        "returns": {
          "_0": "A uint256 specifying the value of tokens still available for the spender."
        }
      },
      "allowanceByPartition(bytes32,address,address)": {
        "details": "Check the value of tokens that an owner allowed to a spender.",
        "params": {
          "owner": "address The address which owns the funds.",
          "partition": "Name of the partition.",
          "spender": "address The address which will spend the funds."
        },
        "returns": {
          "_0": "A uint256 specifying the value of tokens still available for the spender."
        }
      },
      "approve(address,uint256)": {
        "details": "Approve the passed address to spend the specified amount of tokens on behalf of 'msg.sender'.",
        "params": {
          "spender": "The address which will spend the funds.",
          "value": "The amount of tokens to be spent."
        },
        "returns": {
          "_0": "A boolean that indicates if the operation was successful."
        }
      },
      "approveByPartition(bytes32,address,uint256)": {
        "details": "Approve the passed address to spend the specified amount of tokens on behalf of 'msg.sender'.",
        "params": {
          "partition": "Name of the partition.",
          "spender": "The address which will spend the funds.",
          "value": "The amount of tokens to be spent."
        },
        "returns": {
          "_0": "A boolean that indicates if the operation was successful."
        }
      },
      "authorizeOperator(address)": {
        "details": "Set a third party operator address as an operator of 'msg.sender' to transfer and redeem tokens on its behalf.",
        "params": {
          "operator": "Address to set as an operator for 'msg.sender'."
        }
      },
      "authorizeOperatorByPartition(bytes32,address)": {
        "details": "Set 'operator' as an operator for 'msg.sender' for a given partition.",
        "params": {
          "operator": "Address to set as an operator for 'msg.sender'.",
          "partition": "Name of the partition."
        }
      },
      "balanceOf(address)": {
        "details": "Get the balance of the account with address 'tokenHolder'.",
        "params": {
          "tokenHolder": "Address for which the balance is returned."
        },
        "returns": {
          "_0": "Amount of token held by 'tokenHolder' in the token contract."
        }
      },
      "balanceOfByPartition(bytes32,address)": {
        "details": "Get balance of a tokenholder for a specific partition.",
        "params": {
          "partition": "Name of the partition.",
          "tokenHolder": "Address for which the balance is returned."
        },
        "returns": {
          "_0": "Amount of token of partition 'partition' held by 'tokenHolder' in the token contract."
        }
      },
      "constructor": {
        "details": "Initialize ERC1400 + register the contract implementation in ERC1820Registry.",
        "params": {
          "defaultPartitions": "Partitions chosen by default, when partition is not specified, like the case ERC20 tranfers.",
          "initialControllers": "Array of initial controllers.",
          "tokenGranularity": "Granularity of the token.",
          "tokenName": "Name of the token.",
          "tokenSymbol": "Symbol of the token."
        }
      },
      "controllers()": {
        "details": "Get the list of controllers as defined by the token contract.",
        "returns": {
          "_0": "List of addresses of all the controllers."
        }
      },
      "controllersByPartition(bytes32)": {
        "details": "Get controllers for a given partition.",
        "params": {
          "partition": "Name of the partition."
        },
        "returns": {
          "_0": "Array of controllers for partition."
        }
      },
      "decimals()": {
        "details": "Get the number of decimals of the token.",
        "returns": {
          "_0": "The number of decimals of the token. For retrocompatibility, decimals are forced to 18 in ERC1400."
        }
      },
      "getDefaultPartitions()": {
        "details": "Get default partitions to transfer from. Function used for ERC20 retrocompatibility. For example, a security token may return the bytes32(\"unrestricted\").",
        "returns": {
          "_0": "Array of default partitions."
        }
      },
      "getDocument(bytes32)": {
        "details": "Access a document associated with the token.",
        "params": {
          "documentName": "Short name (represented as a bytes32) associated to the document."
        },
        "returns": {
          "_0": "Requested document + document hash + document timestamp."
        }
      },
      "granularity()": {
        "details": "Get the smallest part of the token thats not divisible.",
        "returns": {
          "_0": "The smallest non-divisible part of the token."
        }
      },
      "isControllable()": {
        "details": "Know if the token can be controlled by operators. If a token returns 'false' for 'isControllable()'' then it MUST always return 'false' in the future.",
        "returns": {
          "_0": "bool 'true' if the token can still be controlled by operators, 'false' if it can't anymore."
        }
      },
      "isIssuable()": {
        "details": "Know if new tokens can be issued in the future.",
        "returns": {
          "_0": "bool 'true' if tokens can still be issued by the issuer, 'false' if they can't anymore."
        }
      },
      "isOperator(address,address)": {
        "details": "Indicate whether the operator address is an operator of the tokenHolder address.",
        "params": {
          "operator": "Address which may be an operator of tokenHolder.",
          "tokenHolder": "Address of a token holder which may have the operator address as an operator."
        },
        "returns": {
          "_0": "'true' if operator is an operator of 'tokenHolder' and 'false' otherwise."
        }
      },
      "isOperatorForPartition(bytes32,address,address)": {
        "details": "Indicate whether the operator address is an operator of the tokenHolder address for the given partition.",
        "params": {
          "operator": "Address which may be an operator of tokenHolder for the given partition.",
          "partition": "Name of the partition.",
          "tokenHolder": "Address of a token holder which may have the operator address as an operator for the given partition."
        },
        "returns": {
          "_0": "'true' if 'operator' is an operator of 'tokenHolder' for partition 'partition' and 'false' otherwise."
        }
      },
      "issue(address,uint256,bytes)": {
        "details": "Issue tokens from default partition.",
        "params": {
          "data": "Information attached to the issuance, by the issuer.",
          "tokenHolder": "Address for which we want to issue tokens.",
          "value": "Number of tokens issued."
        }
      },
      "issueByPartition(bytes32,address,uint256,bytes)": {
        "details": "Issue tokens from a specific partition.",
        "params": {
          "data": "Information attached to the issuance, by the issuer.",
          "partition": "Name of the partition.",
          "tokenHolder": "Address for which we want to issue tokens.",
          "value": "Number of tokens issued."
        }
      },
      "name()": {
        "details": "Get the name of the token, e.g., \"MyToken\".",
        "returns": {
          "_0": "Name of the token."
        }
      },
      "operatorRedeemByPartition(bytes32,address,uint256,bytes)": {
        "details": "Redeem tokens of a specific partition.",
        "params": {
          "operatorData": "Information attached to the redemption, by the operator.",
          "partition": "Name of the partition.",
          "tokenHolder": "Address for which we want to redeem tokens.",
          "value": "Number of tokens redeemed"
        }
      },
      "operatorTransferByPartition(bytes32,address,address,uint256,bytes,bytes)": {
        "details": "Transfer tokens from a specific partition through an operator.",
        "params": {
          "data": "Information attached to the transfer. [CAN CONTAIN THE DESTINATION PARTITION]",
          "from": "Token holder.",
          "operatorData": "Information attached to the transfer, by the operator.",
          "partition": "Name of the partition.",
          "to": "Token recipient.",
          "value": "Number of tokens to transfer."
        },
        "returns": {
          "_0": "Destination partition."
        }
      },
      "owner()": {
        "details": "Returns the address of the current owner."
      },
      "partitionsOf(address)": {
        "details": "Get partitions index of a tokenholder.",
        "params": {
          "tokenHolder": "Address for which the partitions index are returned."
        },
        "returns": {
          "_0": "Array of partitions index of 'tokenHolder'."
        }
      },
      "redeem(uint256,bytes)": {
        "details": "Redeem the amount of tokens from the address 'msg.sender'.",
        "params": {
          "data": "Information attached to the redemption, by the token holder.",
          "value": "Number of tokens to redeem."
        }
      },
      "redeemByPartition(bytes32,uint256,bytes)": {
        "details": "Redeem tokens of a specific partition.",
        "params": {
          "data": "Information attached to the redemption, by the redeemer.",
          "partition": "Name of the partition.",
          "value": "Number of tokens redeemed."
        }
      },
      "redeemFrom(address,uint256,bytes)": {
        "details": "Redeem the amount of tokens on behalf of the address from.",
        "params": {
          "data": "Information attached to the redemption.",
          "from": "Token holder whose tokens will be redeemed (or address(0) to set from to msg.sender).",
          "value": "Number of tokens to redeem."
        }
      },
      "renounceControl()": {
        "details": "Definitely renounce the possibility to control tokens on behalf of tokenHolders. Once set to false, '_isControllable' can never be set to 'true' again."
      },
      "renounceIssuance()": {
        "details": "Definitely renounce the possibility to issue new tokens. Once set to false, '_isIssuable' can never be set to 'true' again."
      },
      "renounceOwnership()": {
        "details": "Leaves the contract without owner. It will not be possible to call `onlyOwner` functions anymore. Can only be called by the current owner. NOTE: Renouncing ownership will leave the contract without an owner, thereby removing any functionality that is only available to the owner."
      },
      "revokeOperator(address)": {
        "details": "Remove the right of the operator address to be an operator for 'msg.sender' and to transfer and redeem tokens on its behalf.",
        "params": {
          "operator": "Address to rescind as an operator for 'msg.sender'."
        }
      },
      "revokeOperatorByPartition(bytes32,address)": {
        "details": "Remove the right of the operator address to be an operator on a given partition for 'msg.sender' and to transfer and redeem tokens on its behalf.",
        "params": {
          "operator": "Address to rescind as an operator on given partition for 'msg.sender'.",
          "partition": "Name of the partition."
        }
      },
      "setControllers(address[])": {
        "details": "Set list of token controllers.",
        "params": {
          "operators": "Controller addresses."
        }
      },
      "setDefaultPartitions(bytes32[])": {
        "details": "Set default partitions to transfer from. Function used for ERC20 retrocompatibility.",
        "params": {
          "partitions": "partitions to use by default when not specified."
        }
      },
      "setDocument(bytes32,string,bytes32)": {
        "details": "Associate a document with the token.",
        "params": {
          "documentHash": "Hash of the document [optional parameter].",
          "documentName": "Short name (represented as a bytes32) associated to the document.",
          "uri": "Document content."
        }
      },
      "setPartitionControllers(bytes32,address[])": {
        "details": "Set list of token partition controllers.",
        "params": {
          "operators": "Controller addresses.",
          "partition": "Name of the partition."
        }
      },
      "symbol()": {
        "details": "Get the symbol of the token, e.g., \"MYT\".",
        "returns": {
          "_0": "Symbol of the token."
        }
      },
      "totalPartitions()": {
        "details": "Get list of existing partitions.",
        "returns": {
          "_0": "Array of all exisiting partitions."
        }
      },
      "totalSupply()": {
        "details": "Get the total number of issued tokens.",
        "returns": {
          "_0": "Total supply of tokens currently in circulation."
        }
      },
      "totalSupplyByPartition(bytes32)": {
        "details": "Get the total number of issued tokens for a given partition.",
        "params": {
          "partition": "Name of the partition."
        },
        "returns": {
          "_0": "Total supply of tokens currently in circulation, for a given partition."
        }
      },
      "transfer(address,uint256)": {
        "details": "Transfer token for a specified address.",
        "params": {
          "to": "The address to transfer to.",
          "value": "The value to be transferred."
        },
        "returns": {
          "_0": "A boolean that indicates if the operation was successful."
        }
      },
      "transferByPartition(bytes32,address,uint256,bytes)": {
        "details": "Transfer tokens from a specific partition.",
        "params": {
          "data": "Information attached to the transfer, by the token holder.",
          "partition": "Name of the partition.",
          "to": "Token recipient.",
          "value": "Number of tokens to transfer."
        },
        "returns": {
          "_0": "Destination partition."
        }
      },
      "transferFrom(address,address,uint256)": {
        "details": "Transfer tokens from one address to another.",
        "params": {
          "from": "The address which you want to transfer tokens from.",
          "to": "The address which you want to transfer to.",
          "value": "The amount of tokens to be transferred."
        },
        "returns": {
          "_0": "A boolean that indicates if the operation was successful."
        }
      },
      "transferFromWithData(address,address,uint256,bytes)": {
        "details": "Transfer the amount of tokens on behalf of the address 'from' to the address 'to'.",
        "params": {
          "data": "Information attached to the transfer, and intended for the token holder ('from').",
          "from": "Token holder (or 'address(0)' to set from to 'msg.sender').",
          "to": "Token recipient.",
          "value": "Number of tokens to transfer."
        }
      },
      "transferOwnership(address)": {
        "details": "Transfers ownership of the contract to a new account (`newOwner`). Can only be called by the current owner."
      },
      "transferWithData(address,uint256,bytes)": {
        "details": "Transfer the amount of tokens from the address 'msg.sender' to the address 'to'.",
        "params": {
          "data": "Information attached to the transfer, by the token holder.",
          "to": "Token recipient.",
          "value": "Number of tokens to transfer."
        }
      }
    },
    "title": "ERC1400",
    "version": 1
  },
  "userdoc": {
    "kind": "user",
    "methods": {},
    "version": 1
  }
}